:020000040800F2
:10000000000002203D3F00082907000831070008D2
:100010003307000835070008370700080000000014
:100020000000000000000000000000003907000888
:100030003B070008000000003D0700083F070008DC
:100040008D3F00088D3F00088D3F00088D3F000860
:100050008D3F00088D3F00088D3F00088D3F000850
:100060008D3F00088D3F00088D3F00088D3F000840
:100070008D3F00088D3F00088D3F00088D3F000830
:100080008D3F00088D3F00088D3F00088D3F000820
:100090008D3F00088D3F00088D3F00088D3F000810
:1000A0008D3F00088D3F00088D3F00088D3F000800
:1000B0008D3F00088D3F00088D3F00088D3F0008F0
:1000C0008D3F00088D3F00088D3F00088D3F0008E0
:1000D0008D3F00088D3F00088D3F00088D3F0008D0
:1000E0008D3F00088D3F00088D3F00088D3F0008C0
:1000F0008D3F00088D3F00088D3F00088D3F0008B0
:100100008D3F00088D3F00088D3F00088D3F00089F
:100110008D3F00088D3F00088D3F00088D3F00088F
:100120008D3F00088D3F00088D3F00088D3F00087F
:100130008D3F00088D3F00088D3F00088D3F00086F
:100140008D3F00088D3F00088D3F000849070008DB
:100150008D3F00088D3F00088D3F00088D3F00084F
:100160008D3F00088D3F00088D3F00088D3F00083F
:100170008D3F00088D3F00088D3F00080000000003
:080180008D3F00088D3F0008CF
:100188000348044B834202D0034B03B1184770471E
:10019800F8000020F8000020000000000548064B89
:1001A8001B1AD90F01EBA301491002D0034B03B16D
:1001B80018477047F8000020F800002000000000F1
:1001C80010B5064C237843B9FFF7DAFF044B13B197
:1001D8000448AFF300800123237010BDF80000200D
:1001E80000000000903F000808B5044B1BB104490B
:1001F8000448AFF30080BDE80840CFE700000000E6
:10020800FC000020903F000870B50F4B0F4DAB422B
:10021800A3EB050607D0B610002455F8043B0134BB
:100228009847A642F9D803F0AFFE094D094B5E1B6B
:10023800AB424FEAA60606D0002455F8043B013429
:100248009847A642F9D870BD184000081840000821
:10025800184000081C400008830730B547D0541EDA
:10026800002A3ED0CAB2034601E0013C39D303F864
:10027800012B9D07F9D1032C2CD9CDB205EB05250F
:100288000F2C05EB054535D9A4F1100222F00F0C0F
:1002980003F1100EE6444FEA121C1A46C2E9005553
:1002A800C2E9025510327245F8D10CF1010214F07E
:1002B8000C0F03EB021204F00F0C13D0ACF1040383
:1002C80023F003030433134442F8045B9342FBD145
:1002D8000CF003042CB1C9B21C4403F8011BA3425F
:1002E800FBD130BD64461346002CF4D1F9E7034630
:1002F8001446C0E71A46A446E0E700BF53B94AB916
:10030800002908BF00281CBF4FF0FF314FF0FF3015
:1003180000F06AB9ADF1080C6DE904CE00F006F8FA
:10032800DDF804E0DDE9022304B070472DE9F04769
:10033800089D0E4604460F46002B4AD194468C452C
:10034800B2FA82F260D942B1C2F12003974020FA92
:1003580003F30CFA02FC1F4394404FEA1C4E1FFAA9
:100368008CF6B7FBFEF1230C0EFB117743EA07432B
:1003780001FB06F098420AD91CEB030301F1FF3791
:1003880080F01581984240F21281023963441B1AA9
:10039800A4B2B3FBFEF00EFB103344EA034400FBA7
:1003A80006F6A6420AD91CEB040400F1FF3380F0DC
:1003B8000081A64240F2FD806444023840EA0140D0
:1003C800A41B00211DB1D4400023C5E90043BDE8AA
:1003D800F0878B4205D90DB1C5E900010021084617
:1003E800F5E7B3FA83F1002946D1B34202D382423A
:1003F80000F2F580841A66EB030201201746002DEF
:10040800E5D0C5E90047E2E7002A40F09380A1EB78
:100418000C034FEA1C471FFA8CFE0121B3FBF7F6C9
:1004280007FB1630230C43EA00430EFB06F0984204
:1004380008D91CEB030306F1FF3802D2984200F2F8
:10044800D08046461B1AA4B2B3FBF7F007FB103363
:1004580044EA03440EFB00FEA64508D91CEB04043D
:1004680000F1FF3302D2A64500F2B6801846A4EB8D
:100478000E0440EA0640A5E7C1F120078B4022FAA6
:1004880007FC4CEA030C06FA01FE20FA07F426FAE8
:1004980007F344EA0E0400FA01F84FEA1C404FEA59
:1004A8001449B3FBF0FE1FFA8CF600FB1E3349EA31
:1004B80003430EFB06F9994502FA01F20BD91CEB2E
:1004C80003030EF1FF3A80F08580994540F282805F
:1004D800AEF1020E6344A3EB0909A4B2B9FBF0F331
:1004E80000FB139944EA094403FB06F6A64208D91F
:1004F8001CEB040403F1FF3068D2A64266D9023B24
:10050800644443EA0E40A41BA0FB02E6B4427346CF
:10051800B14652D34FD05DB1B8EB030264EB090486
:1005280004FA07F722FA01F31F43CC40C5E9007427
:1005380000214CE7C2F1200120FA01F30CFA02FC79
:1005480026FA01F1964033434FEA1C471FFA8CFE06
:10055800B1FBF7F007FB1016190C41EA064100FB46
:100568000EF68E4204FA02F408D91CEB010100F1E0
:10057800FF382DD28E422BD902386144891B9BB299
:10058800B1FBF7F607FB161143EA014306FB0EF130
:10059800994208D91CEB030306F1FF3814D299429B
:1005A80012D9023E63445B1A46EA004136E73946EF
:1005B800EDE6184602E7F045ADD2BEEB020366EB66
:1005C8000C060138B146A6E74646ECE7034698E72D
:1005D8004046D3E7D6467EE76444023847E70846F4
:1005E8000DE7023E63442DE7704700BF72B6FEE791
:1005F80000B595B03022002108A8FFF72DFE002392
:10060800039304930593069307930193214A116C6E
:1006180041F080511164126C02F080520192019AEB
:1006280002931D4B1A6842F480421A601B6803F457
:1006380080430293029B012308934FF4803309936C
:1006480002230E934FF480020F9204221092A822E4
:10065800119212930723139308A801F0E5FEA8B995
:100668000F23039302230493002305934FF4A0530D
:1006780006934FF480530793052103A802F044F929
:1006880030B902F0CDF815B05DF804FBFFF7AEFF06
:10069800FFF7ACFF003802400070004000B585B09D
:1006A80002F092FBFFF7A4FF00F014F800F06CF8DA
:1006B800074BEC460FCBACE807008CF800300C2158
:1006C800684600F04DF94FF47A7002F0A9FBEFE7A5
:1006D800A83F000884B000220192104B196B41F02A
:1006E80004011963196B01F0040101910199029247
:1006F800196B41F080011963196B01F080010291B7
:10070800029903921A6B42F001021A631B6B03F001
:1007180001030393039B04B0704700BF00380240F5
:1007280008B502F0A9F9FEE7FEE7FEE7FEE7FEE7F7
:1007380070477047704708B502F060FB08BD0000BD
:1007480008B5024800F0A7FD08BD00BF100C002046
:1007580082B0002100910B4B5A6C42F480425A64DB
:100768005A6C02F480420092009A01911A6C42F08D
:1007780080521A641B6C03F080530193019B02B0F2
:10078800704700BF0038024008B500220F491048E2
:1007980002F064FB70B90F490D4802F076FB60B9AE
:1007A8000D490B4803F06AFB50B9094802F087FB72
:1007B80048B908BDFFF71AFFEDE7FFF717FFEFE7A6
:1007C800FFF714FFF1E7FFF711FFF2E7340000200D
:1007D80014010020B40000205000002012230B80D8
:1007E800004870472000002004230B800048704711
:1007F8001C000020002393421ED200B510E00CF12B
:10080800370C01F813C000014FEA430C0CF1010C3E
:100818004FF0000E01F80CE00133DBB2934209D22D
:100828004FEA107CB0F1204FE9D20CF1300C01F8FE
:1008380013C0E8E75DF804FB7047000038B50B4BC0
:10084800D3F8100AD3F8144AD3F8183AC01800D1CC
:1008580038BD074D08222946FFF7CCFF042205F1D1
:1008680010012046FFF7C6FFF2E700BF0070FF1F28
:100878000200002008B51A230B80FFF7DFFF0148AC
:1008880008BD00BF0000002008B50A4628B9054980
:10089800054803F069F8034808BD0249024803F017
:1008A80063F8F8E7F0030020B83F000810B50A46DF
:1008B800034C2146034803F057F8204610BD00BFFB
:1008C800F0030020D03F000808B50A4628B90549BA
:1008D800054803F049F8034808BD0249024803F0F7
:1008E80043F8F8E7F0030020E43F000808B50A469B
:1008F80028B90549054803F037F8034808BD0249F7
:10090800024803F031F8F8E7F0030020F03F000850
:1009180000207047002070470020704710B501463E
:10092800044C204603F0C3FA204603F0E7FA0020FF
:1009380010BD00BF1401002010B5064C0022064966
:10094800204603F0A6FA0549204603F0B0FA002035
:1009580010BD00BF14010020F0050020F0070020A2
:10096800094BD3F8BC32D3F814320BB101207047CD
:1009780010B5054C0A460146204603F08AFA20467F
:1009880003F0A1FA10BD00BF1401002030B589B0F2
:100998000023039304930593069307930368B3F125
:1009A800A04F01D009B030BD00250195164C236B2E
:1009B80043F001032363236B03F001030193019BBD
:1009C8004FF4C053039302230493032306930A238B
:1009D800079303A90D4802F05FF8636B43F08003A7
:1009E80063630295636C43F480436364636C03F44C
:1009F80080430293029B2A462946432002F096F937
:100A0800432002F0A3F9CDE700380240000002407D
:100A180008B500F29C41D0F8E00402F066FA08BD7F
:100A280008B501EBC10300EB8303D3F86022D0F8CB
:100A3800E00402F02DFB08BD08B501EBC10300EB93
:100A480083031A6AD0F8E00402F087FB08BD08B5F2
:100A5800D0F8E00402F0C7FA08BD10B50446C17921
:100A680011B1022909D10121D4F8E00402F09CFA5D
:100A7800D4F8E00402F065FA10BDFFF7B7FD0121D4
:100A8800F2E7000010B50446D0F8E00402F08FFA4F
:100A98002268D2F8003E43F00103C2F8003EE37A30
:100AA80023B1034A136943F00603136110BD00BF65
:100AB80000ED00E008B5D0F8E00402F087FA08BDC0
:100AC80008B5D0F8E00402F0B6FA08BD08B5D0F8C9
:100AD800E00402F099FA08BD08B5D0F8E00402F085
:100AE800C1FA08BD08B5D0F8E00402F0BDFA08BDA7
:100AF80002780AB10020704710B503461548C0F8BF
:100B0800E034C3F8C8024FF0A04303600423037124
:100B18000222C2710023837142728372C37203730B
:100B28008373C37300F0EEF880B90A4C8021204625
:100B380000F0B6FE40220021204600F08BFE802205
:100B48000121204600F086FE002010BDFFF74EFD73
:100B5800EBE700BF100C0020D0F8C83211F0800F6E
:100B680008D101F07F0101EBC10103EB810393F888
:100B78005602704701F07F0101EBC10103EB8103CD
:100B8800987D704708B5D0F8C80200F0BFFA08BDD4
:100B980000487047F00900207047032805D8DFE8AF
:100BA80000F005040205012070470320704708B5CE
:100BB800D0F8C80200F027F9FFF7EFFF08BD08B525
:100BC80094461A466346D0F8C80200F0FCF9FFF7CD
:100BD800E4FF08BD08B5D0F8C80200F03AFAFFF7FC
:100BE800DCFF08BD08B5D0F8C80200F0BDFAFFF771
:100BF800D4FF08BD08B5D0F8C80200F0F8FAFFF72E
:100C0800CCFF08BD08B5D0F8C80200F0C9F9FFF755
:100C1800C4FF08BD08B5D0F8C80200F080FAFFF795
:100C2800BCFF08BD08B5D0F8C80200F04AFAFFF7C3
:100C3800B4FF08BD2DE9F04383B0D0F8008001EB84
:100C4800C10300EB83039A6A5B6A9A4254D8074649
:100C58000C469B1A01EBC10200EB8202D2699A4250
:100C680000D31A4602F103094FEA990915E006F183
:100C780003094FEA9909BB7904EBC40507EB85051D
:100C8800296A0093B3B2E2B2404601F048F92B6AF0
:100C980033442B62AB6A3344AB6208EB441303F56D
:100CA80010639B699BB24B4512D304EBC40307EB5B
:100CB80083039A6A5B6A9A420AD24BB19B1A04EB85
:100CC800C40207EB8202D6699E42D0D31E46CEE705
:100CD80004EBC40307EB83077A6ABB6A9A420FD80E
:100CE80004F00F040122A240D8F8343823EA0203A2
:100CF800C8F83438002000E0012003B0BDE8F083D4
:100D08000020FAE730B583B000287AD00446056899
:100D180090F89534C3B1032384F89534B5F1A04F06
:100D280017D0206800F0AEFE237C8DF80030231D1C
:100D38000ECB206800F0E5FD70B1022384F89534ED
:100D48000125284603B030BD80F89434FFF71EFE15
:100D5800E1E70023A371E4E70021206801F0F5FA38
:100D6800024608B9034617E0022384F895340125A2
:100D7800E7E703EBC30104EB8101012048750B751C
:100D8800CB8500200876C861086203EBC30104EB39
:100D9800810148620133DBB220799842E9D816E034
:100DA80002EBC20304EB8303002183F8551283F896
:100DB800542283F85812C3F85C12C3F8601202EB8D
:100DC800C20304EB8303C3F864120132D2B2904227
:100DD800E6D8237C8DF80030231D0ECB206800F068
:100DE800A7FE054620B1022384F895340125A8E71B
:100DF80000236374012384F89534206801F064FAB1
:100E08009FE701259DE7036890F89424012A1AD0EA
:100E180010B50446012280F89424DA6812F0400FD5
:100E280002D0427B012A09D0206800F025FE206804
:100E380001F03CFA002084F8940410BD9A6B42F447
:100E480080329A63F0E702207047000070B50446CC
:100E58000D460068066C00EB411303F530639A6891
:100E6800A179012911D038498E4256D03DB905EBF8
:100E7800C50304EB8303D3F86432002B5ED0E9B2D8
:100E88002046FFF7CDFD002070BD12F0080F09D0F5
:100E98002E498E42F7D912F4004FF4D04FF4004295
:100EA8009A60F0E712F0200F02D020229A60EAE759
:100EB80012F0280FE7D125498E4206D912F4004FC7
:100EC80003D04FF400429A60DDE705EBC50204EB5E
:100ED8008202D2F874121B69C3F31203CB1AC2F848
:100EE80068327DB905EBC50204EB8202D2F86422B0
:100EF8006AB105EBC50204EB8202D2F8601219440C
:100F0800C2F86012E9B22046FFF78AFDBBE704F297
:100F18009C42012101F058FAF4E712F4004F03D083
:100F28004FF400429A60AEE712F0200F01D0202261
:100F38009A60E9B22046FFF773FDA4E704F29C42E9
:100F4800002101F041FA9AE70A31544F0A30544F10
:100F580038B5044603681D6C03EB4113D3F8081B2E
:100F68000E4A954207D903F5306311F4004F02D0B9
:100F78004FF400429A602046FFF74AFD074B9D4216
:100F880002D9A379012B01D0002038BD04F29C427C
:100F98000121206801F018FAF6E700BF0A30544F23
:100FA80090F89434012B0CD010B50446012380F836
:100FB80094344174006801F069F9002084F89404BD
:100FC80010BD0220704738B505468C4611F0800FD9
:100FD8002BD101F00F0E0EEBCE04A40004F514740F
:100FE8000444211D0EEBCE0E00EB8E0E00208EF871
:100FF80055020CF00F0C81F800C0C2F30A028A6097
:101008000B714A780AB1A1F81AC0022B1CD095F8C6
:101018009434012B1BD0012385F89434286800F000
:1010280062FE002085F8940438BD01F00F0000EB43
:10103800C001890010312944043100EBC00005EBE0
:10104800800001244475D4E700234B71DFE70220B8
:10105800EAE710B504460A4611F0800F20D101F0E6
:101068000F0000EBC0039B0003F514732344191D04
:1010780000EBC00004EB8000002380F8553202F03A
:101088000F020A7094F89434012B18D0012384F8C5
:101098009434206800F074FE002084F8940410BD95
:1010A80001F00F0000EBC0039B0010332344191D0F
:1010B80000EBC00004EB800001234375DFE702204A
:1010C800EDE710B5144601F00F0C0CEBCC018900CC
:1010D80001F51471014404310CEBCC0E00EB8E0EBB
:1010E800CEF86022CEF864320023CEF868328EF84B
:1010F80055328EF854C28279012A04D0006800F073
:1011080025FF002010BDCEF87042F7E701F00F016F
:1011180001EBC10100EB8100D0F86802704710B5FF
:10112800144601F00F0C0CEBCC018900103101447E
:1011380004310CEBCC0E00EB8E0ECEF82020CEF84E
:1011480024300023CEF8283001238EF815308EF88D
:1011580014C082799A4204D0006800F0F7FE00209B
:1011680010BDCEF83040F7E738B501F00F05027929
:10117800AA4238D304460B4611F0800F1FD101EB69
:10118800C101890001F514710144043103EBC30363
:1011980000EB8303002283F8552201238B700D7026
:1011A80094F89434012B20D0012384F894342068D7
:1011B80001F011F885B1002084F8940438BD05EBDE
:1011C800C501890010310144043105EBC50300EB6A
:1011D800830301225A75E0E704F29C42A179206852
:1011E80001F0F2F8E7E70120E8E70220E6E701F07E
:1011F8000F0302799A4230D310B5044611F0800FDC
:101208001ED103EBC301890001F5147101440431B7
:1012180003EBC30200EB8202002082F85502002291
:101228008A700B7094F89434012B18D0012384F839
:101238009434206800F0FCFF002084F8940410BD6A
:1012480003EBC301890010310144043103EBC302ED
:1012580000EB820201205075E1E70120704702206F
:10126800EDE708B511F0800F0CD101F00F0101EB8B
:10127800C101890001F5147101440431006800F0CE
:10128800EFFD08BD01F00F0101EBC101890010312C
:1012980001440431F2E72DE9F04F83B004460568B4
:1012A800284601F04EF810B103B0BDE8F08F0646AD
:1012B800206801F017F80028F6D005F50067BB682C
:1012C800C3F30D23C4F8D434206801F00BF810F0F0
:1012D800020F04D02268536903F0020353612068A7
:1012E80001F000F810F0100F15D02268936923F070
:1012F80010039361D5F8208008F00F0908F4F01363
:10130800B3F5802F4CD0B3F5402F6FD02268936986
:1013180043F010039361206800F0E4FF10F4002FFD
:1013280076D1206800F0DEFF10F4802F40F0E080D6
:10133800206800F0D7FF0028C0F26181206800F023
:10134800D1FF10F4006F09D0BB6813F0010F40F013
:101358006E812268536903F400635361206800F0CA
:10136800C1FF10F4805F40F06681206800F0BAFF8A
:1013780010F4005F40F0B381206800F0B3FF10F074
:10138800080F40F0C481206800F0ACFF10F0800F17
:1013980000F0D781AB6923F08003AB610126C0E17F
:1013A80047F6F07318EA030FB0D04FEA181A4FEA5D
:1013B800C903019309EBC90B04EB8B0BC8F30A12A1
:1013C800DBF86012284600F0E3FEDBF86032CAF36F
:1013D8000A0A5344CBF86032DBF86832019A4A446F
:1013E80004EB82025344C2F868328FE7082204F201
:1013F8009C41284600F0CCFE09EBC90304EB8303AB
:10140800D3F86822C8F30A184244C3F868227DE773
:10141800206800F06BFF8046B14635E005EB4913C4
:101428000122C3F8082B49462046FFF70FFD3CE090
:1014380005EB49130822C3F8082B49462046FFF755
:1014480087FD35E009EBC90304EB830393F85732B2
:10145800012B41D005EB49130222C3F8082B1AF0DF
:10146800200F04D005EB49132022C3F8082B1AF4E7
:10147800005F05D005EB49134FF40052C3F8082B61
:1014880009F101094FEA5808B8F1000F3FF449AFD4
:1014980018F0010FF4D05FFA89FB5946206800F074
:1014A80035FF824610F0010FB8D11AF0080FBFD1EE
:1014B8001AF0100F04D005EB49131022C3F8082BBB
:1014C8001AF0020FCBD06B6913F0800FBAD07B688B
:1014D80043F480637B60B5E709EBC90304EB83033E
:1014E800002283F8572259462046FFF7E9FAB1E768
:1014F800206800F003FF8046B14625E059462046A3
:10150800FFF79AFA1AF0080F04D005EB49130822DE
:10151800C3F808291AF0100F04D005EB491310225C
:10152800C3F808291AF0400F04D005EB49134022EC
:10153800C3F808291AF0020F40D11AF0800F59D1C8
:1015480009F101094FEA5808B8F1000F3FF4F0AE6D
:1015580018F0010FF4D05FFA89FB5946206800F0B3
:10156800DEFE824610F0010FCCD009F00F020121F7
:1015780001FA02F27B6B23EA02037B6305EB491352
:10158800C3F80819A3798B42B8D109EBC90304EB56
:1015980083031A6AD9690A441A62B9F1000FADD1F6
:1015A80009EBC90304EB83035B6A002BA6D104F2A1
:1015B8009C420121206800F007FF9FE74946284622
:1015C80000F066FA09EBC90304EB8303DB7D012B0A
:1015D80005D005EB49130222C3F80829ADE709EB4A
:1015E800C90304EB83030022DA7559462046FFF746
:1015F8006DFAEEE749462046FFF71CFBA0E77B683B
:1016080023F001037B6094F8CC34012B08D02046EA
:10161800FFF750FA2268536903F0004353618DE6DF
:10162800002184F8CC14204600F03EF9F2E7204669
:10163800FFF728FA8DE67B6823F001037B60102111
:10164800206800F025FA1AE005EB46134FF67F31C3
:10165800C3F80819D3F8002922F40012C3F80029A6
:10166800C3F8081BD3F8002B22F40012C3F8002B90
:10167800D3F8002B42F00062C3F8002B013623791F
:10168800B342E1D8FB6943F00113FB61E37BDBB1B3
:10169800D7F8843043F00B03C7F884307B6C43F0F1
:1016A8000B037B64D5F8003823F4FE63C5F80038D3
:1016B80004F29C42A179206800F086FE22685369F2
:1016C80003F48053536150E67B6943F4005343F0BD
:1016D8002B037B613B6943F00B033B61E2E7206826
:1016E80000F064FE206800F0EDFAE071266801F071
:1016F800BBF90146E279304600F04CF92046FFF785
:10170800ACF92268536903F40053536134E6204668
:10171800FFF79DF92268536903F00803536132E625
:1017280001362379B3420CD906EBC60304EB8303D5
:1017380093F85732012BF3D1F1B22046FFF791FD10
:10174800EEE7206800F0CEFD10F4801F25D1206858
:1017580000F0C8FD10F4001F58D0012326E0013620
:101768002379B3421BD905EB4613D3F8002906EBBE
:10177800C60304EB83031B7E012BF0D1002AEEDAAB
:1017880006EBC60304EB83030122DA7566F07F01DA
:10179800C9B22046FFF765FDE1E70126E0E72268C8
:1017A800536903F480135361D1E7013322799A42D4
:1017B80027D905EB4312D2F8001B03EBC30204EB55
:1017C800820292F85822012AEFD10029EDDAD4F8E2
:1017D800D42482EA114212F0010FE6D103EBC302CE
:1017E80004EB8202012182F85712AA6942F08002B2
:1017F800AA616A6912F0800FD7D17B6843F400733D
:101808007B602268536903F400135361206800F079
:1018180069FD10F0804F10D1206800F063FD10F0D2
:10182800040F3FF441AD23685D6815F0040F0DD136
:10183800226853682B43536036E52046FFF74CF97E
:101848002268536903F080435361E5E72046FFF7B8
:1018580049F9EDE710B40468606A31B940EA02401A
:10186800A06200205DF8044B70478C46A36A00EB29
:101878001340002308E003F1400104EB81014968AB
:1018880000EB11400133DBB20CF1FF318B42F2D394
:1018980040EA02400CF13F0104EB81046060E0E79C
:1018A8000368596200207047704782B00023019393
:1018B800019B01330193019BB3F1706F1CD803693D
:1018C800002BF5DA0A23019302E0019B013B019307
:1018D800019B002BF9D1036943F001030361019BCC
:1018E80001330193019BB3F1706F08D8036913F0BA
:1018F800010FF4D1002000E0032002B0704703205C
:10190800FBE784B010B5044603A880E80E009DF8F4
:101918001130012B21D1A36B23F48033A363E36837
:1019280023F4840323F04003E360E36823F44013C3
:10193800E3609DF81830012B0AD02046FFF7B5FF69
:101948009DF80E30012B1CD0BDE8104004B0704744
:10195800E36843F48013E360EFE7E36843F0400390
:10196800E3602046FFF7A1FF9DF8153023B9A36B6C
:1019780043F48033A363E3E7A36B23F48033A363C7
:10198800DEE7A36843F00603A360A36843F02003DF
:10199800A360D9E7022A0AD00922C36823F4705346
:1019A800C360C36843EA8223C36000207047234BA7
:1019B8000B44234A93422FD9224B0B44224A934289
:1019C8002CD9A1F57403A3F51053204A934227D9C3
:1019D800A1F18373A3F5E7431D4A934222D31D4B1C
:1019E8000B441D4A93421FD91C4B0B441C4A93427B
:1019F8001CD31C4B0B441C4A934219D3A1F1B77357
:101A0800A3F55853194A934214D3194B0B44194A56
:101A1800934211D20722C0E70F22BEE70E22BCE78D
:101A28000D22BAE70C22B8E70B22B6E70A22B4E780
:101A38000922B2E70822B0E70622AEE7405327FFA3
:101A4800FF340C00401E1BFF3F420F007F4F120067
:101A580020D6130060B6E5FE5FE3160000D3CEFE85
:101A680040771B00C05BB3FEC09121002075380091
:101A7800E05459FEE09C4100836843F00103836011
:101A880000207047836823F00103836000207047BB
:101A980082B000230193019B01330193019BB3F1B1
:101AA800706F15D80369002BF5DA002301938901BB
:101AB80041F020010161019B01330193019BB3F1C6
:101AC800706F08D8036913F0200FF4D1002000E0EC
:101AD800032002B070470320FBE782B00023019384
:101AE800019B01330193019BB3F1706F13D8036914
:101AF800002BF5DA0023019310230361019B0133C6
:101B08000193019BB3F1706F08D8036913F0100FAC
:101B1800F4D1002000E0032002B070470320FBE767
:101B2800D0F800381943C0F80018002070470000AA
:101B380084B0F8B5044607A880E80E00002306E044
:101B480003F1400204EB82020021516001330E2BA5
:101B5800F6D99DF8266006BBD4F8043843F0020392
:101B6800C4F80438A36B43F40013A363A36B23F4F2
:101B78000023A363A36B23F48023A3630023C4F887
:101B8800003E9DF82130012B15D19DF81F306BB90F
:101B980000212046FFF7C4FF11E0A36B23F40013D4
:101BA800A363A36B43F40023A363E7E70121204663
:101BB800FFF7B6FF03E003212046FFF7B1FF10212E
:101BC8002046FFF765FF054600B101252046FFF7CF
:101BD80084FF00B1012504F5006C0023CCF8103017
:101BE800CCF81430CCF81C300AE0CBB94FF00060C8
:101BF800C2F8000900220A614FF67F328A60013379
:101C08009DF81C10994210D904EB431202F510619B
:101C1800D2F800090028E8DB0020C2F80009E9E74B
:101C28004FF09040C2F80009E4E700230AE0BBB196
:101C38004FF09047C2F8007B002202614FF67F32D6
:101C480082600133994210D904EB431202F53060E7
:101C5800D2F8007B002FEADB0027C2F8007BEBE715
:101C68004FF00067C2F8007BE6E7DCF8103023F499
:101C78008073CCF810300023A3616FF08043636158
:101C88009DF81E301BB9A36943F01003A361A26934
:101C98000B4B1343A3619DF822301BB1A36943F09A
:101CA8000803A361012E04D02846BDE8F84004B01B
:101CB8007047A36943F0804343F00403A361F3E74B
:101CC80000383C80D0F8083803F00603022B04D013
:101CD800062B04D02BB90020704702207047022041
:101CE80070470F20704710B591F800C04B78012B52
:101CF80023D000F5006ED0F81C380CF00F04012238
:101D0800A24043EA0243C0F81C3800EB4C10D0F85C
:101D1800003B13F4004F0ED1D0F8003B8A68C2F3A1
:101D28000A02097942EA8142134343F0805343F49B
:101D38000043C0F8003B002010BDD0F81C280CF070
:101D48000F0E03FA0EF39BB21343C0F81C3800EBD6
:101D58004C10D0F8003913F4004FECD1D0F800390A
:101D68008A68C2F30A02097942EA814242EA8C523D
:101D7800134343F0805343F40043C0F80039DAE7D3
:101D880030B40B784A78012A26D000EB4313D3F8F5
:101D9800002B002A52DBD0F83C480A7802F00F02E8
:101DA8004FF0010C0CFA02F224EA0242C0F83C2877
:101DB800D0F81C28097801F00F010CFA01FC22EA7E
:101DC8000C42C0F81C28D3F8001B234A0A40C3F869
:101DD800002B002030BC704700EB4313D3F80029D8
:101DE800002A1EDBD0F83C580A7802F00F020124C2
:101DF80004FA02F292B225EA0202C0F83C28D0F8AE
:101E08001C28097801F00F018C40A4B222EA0402D0
:101E1800C0F81C28D3F80019104A0A40C3F8002952
:101E2800D7E7D3F8002942F00062C3F80029D3F8B5
:101E3800002942F08042C3F80029D3E7D3F8002BE9
:101E480042F00062C3F8002BD3F8002B42F0804226
:101E5800C3F8002B9FE700BF0078F3EF007833EC5E
:101E680010B483B0024600230193487801280BD0B0
:101E78000B7802EB4313D3F8000B00282DDB00206E
:101E880003B05DF8044B70470B7802EB4313D3F8AB
:101E98000049002C01DB0020F2E7D3F8004944F0A8
:101EA8000064C3F800490B7802EB4313D3F80049E8
:101EB80044F08044C3F80049019B01330193019C1D
:101EC80042F210739C42DBD80B7802EB4313D3F831
:101ED8000039002BF0DB0020D2E7D3F8000B40F0EC
:101EE8000060C3F8000B0B7802EB4313D3F8000B28
:101EF80040F08040C3F8000B019B01330193019827
:101F080042F21073984208D80B7802EB4313D3F8C7
:101F1800003B002BF0DB0020B2E70120B0E710B552
:101F28009DF8084084B903334FEA930E4FF0000C34
:101F380008E000EB023303F5805351F8044B1C60B2
:101F48000CF1010CF445F4D3002010BDF0B583B0BA
:101F58000C784B78012B2DD000EB441C0CF530632A
:101F68001D696FF312051D611D696FF3DC451D6165
:101F7800002C40F0CE800C690CB18C680C618C6828
:101F88000C621D69C4F312042C431C611C6944F4DF
:101F980000241C61012A00F0DF800B79012B00F07E
:101FA800E180DCF8003B43F00443CCF8003B002020
:101FB80003B0F0BD0B6973BB00EB4413D3F81059A1
:101FC8006FF3DC45C3F81059D3F8105945F40025D0
:101FD800C3F81059D3F810596FF31205C3F8105904
:101FE800012A54D000EB4414D4F8003943F00443D8
:101FF800C4F800390B79012B72D00B69002BD6D0AD
:10200800D0F83438097801F00F0101228A401343CF
:10201800C0F83438CBE700EB441303F510631D69AF
:102028006FF312051D611D696FF3DC451D6184B9ED
:102038000E698D68AE4200D90D611D6945F4002511
:102048001D611D690E69C6F3120C45EA0C051D6178
:10205800C6E70D698E683544013DB5FBF6F51E6986
:102068001FFA85FC494F07EAC54535431D610D79BF
:10207800012DE6D11D6925F0C0451D611D694FEA96
:102088004C7C0CF0C04C45EA0C051D61D9E7CB69C6
:102098001BB100EB4412C2F814390B79012B08D09C
:1020A80000EB4414D4F8003943F00443C4F8003971
:1020B8007DE7D0F8083813F4807F08D100EB44128C
:1020C800D2F8003943F00053C2F80039E8E700EBD2
:1020D8004412D2F8003943F08053C2F80039DFE7E0
:1020E800D0F8083813F4807F0CD1D4F8003943F0C5
:1020F8000053C4F8003900920B8A0A78C968FFF7C0
:102108000EFF54E7D4F8003943F08053C4F800397F
:10211800F1E70C6954B91C698D68C5F312052C43A5
:102128001C611C6944F400241C6133E78D682C444D
:10213800013CB4FBF5F4A4B204FB05F50D621D697E
:10214800124E06EAC4442C431C611C690D6AC5F38F
:1021580012052C431C611DE7CA68002A3FF41DAF15
:102168005A611AE7D0F8083813F4807F06D1DCF8F2
:10217800003B43F00053CCF8003B12E7DCF8003B8F
:1021880043F08053CCF8003B0BE700BF0000F81F7A
:1021980010B5844608464FEA920E02F00302002367
:1021A80005E00CF58051096840F8041B01337345BC
:1021B800F7D37AB10CF5805CDCF800400021CBB293
:1021C800DB0024FA03F300F8013B0131013A92B233
:1021D800002AF4D110BD0B784A78012A14D000EBFC
:1021E8004310D0F8002B002A06DB2BB1D0F8003BB7
:1021F80023F08043C0F8003BD0F8003B43F40013C1
:10220800C0F8003B0020704700EB4310D0F80029CD
:10221800002A06DB2BB1D0F8003923F08043C0F840
:102228000039D0F8003943F40013C0F80039E9E761
:102238000B784A78012A0ED000EB4310D0F8003B07
:1022480023F40013C0F8003B0B79023BDBB2012BEF
:1022580015D90020704700EB4310D0F8003923F45B
:102268000013C0F800390B79023BDBB2012BF0D820
:10227800D0F8003943F08053C0F80039E9E7D0F8C6
:10228800003B43F08053C0F8003BE2E7D0F8003849
:1022980023F4FE63C0F80038D0F80038090101F4CF
:1022A800FE610B43C0F8003800207047D0F8003EAC
:1022B80023F00303C0F8003ED0F8043823F00203EB
:1022C800C0F8043800207047D0F8003E23F003031C
:1022D800C0F8003ED0F8043843F00203C0F80438D0
:1022E800002070474269806910407047D0F818385C
:1022F80000F50060C0691840000C7047D0F8183825
:1023080000F50060C069184080B2704700EB4111C9
:10231800D1F8082B00F50060406910407047D0F8EC
:102328001028D0F8343801F00F0C23FA0CF3DB0135
:10233800DBB2134300EB411000F5106080681840D1
:102348007047406900F00100704738B50546C3681A
:1023580023F0C043C360012913D019BBC36843F0FD
:102368008043C36000240A2000F05AFD0A3428463E
:10237800FFF7E7FF08B1C72CF5D9C82C14D0002007
:1023880038BDC36843F00053C36000240A2000F03E
:1023980047FD0A342846FFF7D4FF0128EDD0C72CA3
:1023A800F4D9EAE70120EBE70120E9E7D0F80039A2
:1023B8006FF30A03C0F80039D0F8043843F4807387
:1023C800C0F804380020704710B4046C154B9C42C8
:1023D80003D9D0F8003B002B16DB0024C0F8104BC3
:1023E800D0F8104B44F40024C0F8104BD0F8104B30
:1023F80044F01804C0F8104BD0F8104B44F0C04417
:10240800C0F8104B012903D000205DF8044B704739
:10241800C0F8142BD0F8003B43F08023C0F8003BF1
:10242800F2E700BF0A30544F002800F0E08170B591
:1024380082B00446036813F0010F3BD09F4B9B68A2
:1024480003F00C03042B2CD09C4B9B6803F00C036B
:10245800082B21D06368B3F5803F4FD0B3F5A02F88
:1024680052D0964B1A6822F480321A601A6822F405
:1024780080221A606368002B50D000F0CBFC054620
:102488008E4B1B6813F4003F14D100F0C3FC401BB3
:102498006428F5D90320B1E1884B5B6813F4800FF9
:1024A800D8D0864B1B6813F4003F03D06368002B19
:1024B80000F09F81236813F0020F54D07F4B9B6874
:1024C80013F00C0F3ED07D4B9B6803F00C03082BD8
:1024D80033D0E368002B68D0794B01221A6000F0F2
:1024E80099FC0546754B1B6813F0020F54D100F098
:1024F80091FC401B0228F5D903207FE16F4A13683D
:1025080043F480331360B5E76C4B1A6842F48022B9
:102518001A601A6842F480321A60ABE700F07AFC5D
:102528000546664B1B6813F4003FC3D000F072FCED
:10253800401B6428F5D9032060E1604B5B6813F405
:10254800800FC6D15D4B1B6813F0020F03D0E36800
:10255800012B40F05081594A136823F0F803216990
:1025680043EAC1031360236813F0080F42D063697C
:102578006BB3534B0122C3F8802E00F04BFC054689
:102588004E4B5B6F13F0020F34D100F043FC401B3D
:102598000228F5D9032031E1484A136823F0F803EB
:1025A800216943EAC1031360DDE7454B00221A6045
:1025B80000F030FC0546414B1B6813F0020FD2D0E7
:1025C80000F028FC401B0228F5D9032016E13C4BFB
:1025D8000022C3F8802E00F01DFC0546374B5B6FC8
:1025E80013F0020F06D000F015FC401B0228F5D9A5
:1025F800032003E1236813F0040F77D02F4B1B6CE3
:1026080013F0805F33D1002301932C4B1A6C42F0F6
:1026180080521A641B6C03F080530193019B0125BF
:10262800284B1B6813F4807F23D0A368012B34D078
:10263800052B38D0214B1A6F22F001021A671A6F46
:1026480022F004021A67A368002B3DD000F0E2FBD9
:1026580006461A4B1B6F13F0020F46D100F0DAFB47
:10266800801B41F288339842F3D90320C6E0002545
:10267800D6E7144A136843F48073136000F0CAFB6A
:102688000646104B1B6813F4807FCED100F0C2FBC6
:10269800801B0228F5D90320B0E0084A136F43F0E5
:1026A80001031367CFE7054B1A6F42F004021A675C
:1026B8001A6F42F001021A67C5E700BF00380240EE
:1026C800000047420070004000F0A4FB0646524B51
:1026D8001B6F13F0020F08D000F09CFB801B41F227
:1026E80088339842F3D9032088E0EDB9A369002B19
:1026F80000F08380484A926802F00C02082A51D000
:10270800022B17D0454B00221A6600F083FB0446C3
:10271800414B1B6813F0007F42D000F07BFB001B8D
:102728000228F5D9032069E03B4A136C23F0805353
:102738001364DBE7394B00221A6600F06BFB054691
:10274800354B1B6813F0007F06D000F063FB401B7D
:102758000228F5D9032051E0E369226A1343626A2B
:1027680043EA8213A26A5208013A43EA0243E26A40
:1027780043EA0263284A5360284B01221A6600F094
:1027880049FB0446244B1B6813F0007F06D100F078
:1027980041FB001B0228F5D903202FE000202DE083
:1027A80000202BE0012B2BD01B4B5B6803F480012E
:1027B800E269914226D103F03F02216A8A4223D17D
:1027C800616A47F6C0721A40B2EB811F1ED103F44A
:1027D8004031A26A5208013AB1EB024F18D103F016
:1027E8007063E26AB3EB026F14D1002006E00120A7
:1027F8007047012002E0012000E0002002B070BD17
:102808000120FBE70120F9E70120F7E70120F5E7C0
:102818000120F3E70120F1E70038024000004742B9
:10282800014B0122DA6470470000474208B5334B78
:102838009B6803F00C03042B5BD0082B5BD12F4B58
:102848005A6802F03F025B6813F4800F2CD02B4BC0
:102858005868C0F388104FEA401CBCEB000C6EEBC4
:102868000E0E4FEA8E1343EA9C634FEA8C11B1EBCC
:102878000C0163EB0E03DB0043EA5173C90011EB53
:10288800000C43F10003590200234FEA4C2041EAAF
:10289800DC51FDF733FD194B5B68C3F3014301338A
:1028A8005B00B0FBF3F008BD144B5868C0F3881008
:1028B8004FEA401CBCEB000C6EEB0E0E4FEA8E1379
:1028C80043EA9C634FEA8C11B1EB0C0163EB0E03F6
:1028D800DB0043EA5173C90011EB000C43F100031C
:1028E800990200234FEA8C2041EA9C51FDF706FD2E
:1028F800D1E70348D7E70348D5E700BF00380240CF
:1029080000127A000024F400002800F09B8070B5C3
:102918000D4604464F4B1B6803F007038B4208D251
:10292800CBB24C4A1370136803F007038B4240F094
:102938008B80236813F0020F17D013F0040F04D014
:10294800454A936843F4E0539360236813F0080FF3
:1029580004D0414A936843F4604393603E4A9368C5
:1029680023F0F003A1680B439360236813F0010F71
:1029780032D06368012B21D09A1E012A25D9364A04
:10298800126812F0020F61D033498A6822F00302FC
:1029980013438B6000F03EFA06462F4B9B6803F00A
:1029A8000C036268B3EB820F16D000F033FA801B79
:1029B80041F288339842F0D9032042E0264A12684F
:1029C80012F4003FE0D101203BE0234A126812F0E4
:1029D800007FD9D1012034E01E4B1B6803F00703A8
:1029E800AB4207D9EAB21B4B1A701B6803F0070306
:1029F800AB422DD1236813F0040F06D0164A936812
:102A080023F4E053E1680B439360236813F0080F45
:102A180007D0114A936823F46043216943EAC1034C
:102A28009360FFF703FF0C4B9B68C3F303130B4A38
:102A3800D35CD8400A4B18600A4B186800F09EF91E
:102A4800002070BD012070470120FAE70120F8E757
:102A58000120F6E7003C0240003802400040000830
:102A68006C00002068000020014B1868704700BF08
:102A78006C0000207047000008B5064BDB6813F0B7
:102A8800800F00D108BDFFF7F5FF024B80229A7333
:102A9800F8E700BF0038024000230F2B00F2E9805E
:102AA80070B582B065E085684FEA430E032404FAE6
:102AB8000EF425EA0405CC6804FA0EF42C4384606D
:102AC800446824EA02044A68C2F300129A40224386
:102AD80042605CE0DC08083450F8242003F0070565
:102AE800AD004FF00F0E0EFA05FE22EA0E0E0A692F
:102AF800AA4042EA0E0240F824205CE0072200E0E7
:102B0800002202FA0EF22A4302345A4D45F82420D4
:102B1800594A94686FEA0C0224EA0C054E6816F4C8
:102B2800801F01D04CEA0405534CA560E46802EA12
:102B380004054E6816F4001F01D04CEA04054E4CFB
:102B4800E560646802EA04054E6816F4003F01D0A7
:102B58004CEA0405484C6560246822404D6815F429
:102B6800803F01D04CEA0402434C226001330F2B12
:102B78007DD801229A400C6804EA020C32EA040467
:102B8800F4D14C6804F00304013C012C8BD94A6849
:102B980002F00302032A09D0C4685D000322AA4098
:102BA80024EA02048A68AA402243C2604A6802F002
:102BB8000302022A8ED004684FEA430E032202FA67
:102BC8000EF224EA02044A6802F0030202FA0EF244
:102BD800224302604A6812F4403FC7D000220192A3
:102BE800264A546C44F480445464526C02F4804283
:102BF8000192019A9C08A51C1E4A52F8255003F020
:102C0800030E4FEA8E0E0F2202FA0EF225EA020593
:102C18001B4A90423FF474AF02F5806290421AD08A
:102C280002F58062904218D002F58062904216D078
:102C380002F58062904214D002F58062904212D070
:102C480002F58062904210D002F5806290423FF413
:102C580055AF082255E7012253E7022251E7032224
:102C68004FE704224DE705224BE7062249E702B069
:102C780070BD704700380140003C014000380240F8
:102C880000000240002807DB00F01F024009012372
:102C98009340024A42F82030704700BF00E100E04C
:102CA800002808DB0901C9B200F1604000F5614065
:102CB80080F80013704700F00F000901C9B2014BFA
:102CC8001954704714ED00E000B500F00700C0F19A
:102CD800070CBCF1040F28BF4FF0040C031D062B92
:102CE8000FD9C31E4FF0FF3E0EFA0CF021EA000187
:102CF80099400EFA03FE22EA0E0241EA02005DF84C
:102D080004FB0023EEE70000074AD36823F4E063DE
:102D18001B041B0C000200F4E060034343F0BF6394
:102D280043F40033D360704700ED00E010B504466B
:102D3800054BD868C0F30220FFF7C6FF01462046BE
:102D4800FFF7AEFF10BD00BF00ED00E008B5FFF7CC
:102D580099FF08BD0138B0F1807F0BD24FF0E02316
:102D68005861054AF02182F8231000209861072253
:102D78001A6170470120704700ED00E010B5044665
:102D88000E4B1A784FF47A73B3FBF2F30C4A1068BF
:102D9800B0FBF3F0FFF7DEFF68B90F2C01D9012073
:102DA8000AE0002221464FF0FF30FFF7BFFF054B36
:102DB8001C60002000E0012010BD00BF640000205E
:102DC8006C0000206800002008B50B4B1A6842F41C
:102DD80000721A601A6842F480621A601A6842F433
:102DE80080721A600320FFF78FFF0F20FFF7C6FFDE
:102DF800FDF7AEFC002008BD003C0240034A116804
:102E0800034B1B780B441360704700BFF41000207D
:102E180064000020014B1868704700BFF4100020C0
:102E280038B50446FFF7F6FF0546B4F1FF3F02D078
:102E3800044B1B781C44FFF7EDFF401BA042FAD35C
:102E480038BD00BF64000020034AD2F8883043F43C
:102E58007003C2F88830704700ED00E098B108B5FB
:102E680003460020C3F8B802C3F8C402C3F8D0026E
:102E780009B1C3F8B412012183F89C121A701846DC
:102E8800FDF736FE08BD0320704710B582B0002359
:102E9800ADF8063089B10446C0F8B812CB6A23B140
:102EA8000DF106009847C4F8D002D4F8D83201339F
:102EB800C4F8D832002002B010BD0320FBE708B5E3
:102EC800FDF775FE08BD08B5D0F8B83213B11B6818
:102ED800984708BD0020FCE708B5D0F8B8325B6811
:102EE800984700B908BD0320FCE738B5044600F24E
:102EF800AA25284600F0CDF90123C4F89432B4F885
:102F0800B032C4F8983294F8AA1201F01F03012BCA
:102F180007D0022B0AD073B92946204600F08EFB51
:102F280038BD2946204600F0C4FBF9E7294620466B
:102F380000F001FCF4E701F080012046FDF752FEA5
:102F4800EEE7F8B50446012380F89C320023C0F868
:102F580094324360C0F8A43280F8A032D0F8B83276
:102F6800E3B15B68E3B1002198470746D0B9402335
:102F7800002211462046FDF722FE012684F86361EF
:102F88004025A4F860512B46002280212046FDF7F9
:102F980016FE84F8236025843846F8BD0027E6E746
:102FA8000027E4E70327E2E701740020704790F860
:102FB8009C32DBB2042B04D090F89C32DBB280F850
:102FC8009D32042380F89C320020704790F89C3290
:102FD800DBB2042B01D00020704790F89D32DBB2A1
:102FE80080F89C32F7E708B590F89C32DBB2032BE7
:102FF80001D0002008BDD0F8B832002BF9D0DB6929
:10300800002BF6D09847F4E708B5D0F8D432AE33A1
:1030180050F823205AB190F89C32DBB2032B01D030
:10302800002008BD136A23B198470020F9E7032060
:10303800F7E70020F5E708B5D0F8D432AE3350F8FA
:1030480023205AB190F89C32DBB2032B01D0002028
:1030580008BD536A23B198470020F9E70320F7E732
:103068000020F5E70020704708B5012380F89C325E
:10307800D0F8B83223B15B680179984710B908BD18
:103088000020FCE70320FAE7002070470020704783
:1030980038B504460D46002945D1D0F89432032BA3
:1030A80001D0084638BDD0F85831B0F860219342B5
:1030B80009D890F8AA3203F01F03012B12D0022B73
:1030C8001FD0084613E09B1AC0F85831D0F8641195
:1030D8001144C0F864119A4238BF1A4600F08EFCB9
:1030E8002846DFE790F8AE12FFF7CEFF20B994F834
:1030F8009C32DBB2032B09D0204600F087FC28461F
:10310800D0E790F8AE12FFF7C1FFEFE700F1AE038A
:1031180054F823301A69002AEED0C4F8D4021B6987
:1031280020469847E8E701F07F01FFF7AFFF90B925
:1031380094F89C32DBB2032BB4D100F1AE0354F8FF
:1031480023309A69002AADD0C4F8D4029B69294675
:1031580020469847A6E70020A4E738B504460D4660
:1031680000294CD1D0F89432022B07D094F8A00251
:1031780018B1002384F8A032284638BD8269038C30
:103188009A420ED89A421AD094F89C32DBB2032B9A
:1031980029D080212046FDF725FD204600F041FC7E
:1031A800E4E7D21A8261416A1944416200F00DFCD9
:1031B80000231A4619462046FDF734FDD6E7426932
:1031C8009342E1D8D0F898329A42DDD200221146D3
:1031D80000F0FBFB0021C4F898120B460A46204673
:1031E800FDF720FDC2E7D4F8B832DA68002AD0D05B
:1031F8000022C4F8D422DB6820469847C9E741F08A
:103208008001FFF743FF90B994F89C32DBB2032B9F
:10321800B3D100F1AE0354F823305A69002AACD078
:10322800C4F8D4025B69294620469847A5E70020E0
:10323800A3E70B88027813440B800378184470477F
:10324800428803789A4218D930B583B004460D46AF
:10325800ADF806306388BDF806209A420AD20DF10F
:103268000601FFF7E6FF4378052BF3D18378AB42DD
:10327800F0D100E0002003B030BD002070470346C5
:10328800002002E00130C0B201331A78002AF9D1D7
:1032980070470B7803704B7843708B78CA7843EA91
:1032A800022343800B794A7943EA022383808B798E
:1032B800CA7943EA0223C380704710B504468021C7
:1032C800FDF790FC00212046FDF78CFC10BD30B5C1
:1032D80083B004460D460023ADF806304A88130A29
:1032E800013B062B00F2AB80DFE803F0041F33A993
:1032F800A98D9A00D0F8B4321B680DF10601007C44
:103308009847EA88002A00F0A380BDF80630002B11
:1033180000F099809A4228BF1A46ADF80620014667
:10332800204600F044FB03B030BD037C43B9D0F81D
:10333800B8329B6A0DF10600984702234370E0E714
:10334800D0F8B832DB6A0DF10600984702234370C3
:10335800D7E7D2B2052A52D8DFE802F003101D2AB7
:103368003744D0F8B4325B6823B10DF10601007C14
:103378009847C6E72946FFF7A0FFD4E7D0F8B4324C
:103388009B6823B10DF10601007C9847B9E72946EF
:10339800FFF793FFC7E7D0F8B432DB6823B10DF12C
:1033A8000601007C9847ACE72946FFF786FFBAE795
:1033B800D0F8B4321B6923B10DF10601007C98479F
:1033C8009FE72946FFF779FFADE7D0F8B4325B698C
:1033D80023B10DF10601007C984792E72946FFF7D3
:1033E8006CFFA0E7D0F8B4329B6923B10DF1060158
:1033F800007C984785E72946FFF75FFF93E7294652
:10340800FFF75BFF8FE7037C33B9D0F8B8325B6B0B
:103418000DF10600984774E72946FFF74EFF82E74B
:10342800037C43B9D0F8B8321B6B0DF106009847FE
:103438000723437065E72946FFF73FFF73E72946EF
:10344800FFF73BFF6FE729462046FFF736FF6AE79D
:10345800204600F0DBFA66E738B504468B88FBB9EE
:10346800CB88EBB94B887F2B1AD803F07F0590F8EF
:103478009C32DBB2032B0CD080F89E522946FDF714
:10348800C1FB204600F0C2FA35B1022384F89C3211
:1034980009E0FFF712FF06E0012384F89C3202E0FE
:1034A8002046FFF70AFF38BD70B504460E468D78F2
:1034B8002F4B1D70012D10D890F89C32DBB2022BD7
:1034C8000FD0032B26D0FFF7F8FE294B197820469A
:1034D800FFF702FD0325284670BDFFF7EEFE032522
:1034E800F9E7A5B145602946FFF7EDFC054638B177
:1034F80031462046FFF7E1FE022384F89C32EAE7D2
:10350800204600F083FA032384F89C32E3E700F0B6
:103518007DFAE0E7CDB141688D4225D0C9B2FFF709
:10352800DBFC134B197861602046FFF7CCFC05469D
:10353800B0B131462046FFF7C0FE21792046FFF79B
:10354800CBFC022384F89C32C5E7022380F89C3226
:1035580045602946FFF7C0FC204600F057FABAE755
:10356800204600F053FAB6E700F050FA0025B2E71B
:10357800F810002008B5CB88012B0BD190F89C32AD
:10358800DBB2022B09D9032B11D10122011D00F056
:103598000EFA01E0FFF791FE08BD5BB23BB10146B0
:1035A800002341F8083F012200F001FAF4E7FFF791
:1035B80084FEF1E708B590F89C32013B022B12D843
:1035C800CB88022B0CD10023C360D0F8A4320BB1F6
:1035D8000223C360022200F10C0100F0E8F908BDE3
:1035E800FFF76BFEFBE7FFF768FEF8E708B54B88C7
:1035F800012B04D0022B07D0FFF75FFE08BDC0F8EF
:10360800A43200F003FAF9E78B881B0A80F8A0328D
:1036180000F0FCF9F2E708B590F89C32013B022B68
:1036280009D84B88012B00D008BD0023C0F8A4326C
:1036380000F0ECF9F8E7FFF740FEF5E738B50C784D
:1036480004F06004202C06D0402C04D06CB1FFF7A5
:1036580034FE002407E0D0F8D432AE3350F82330DB
:103668009B6898470446204638BD4D78092D1DD8DB
:10367800DFE805F012191C161C08051C0F0BFFF7D4
:1036880026FEF0E7FFF7E8FEEDE7FFF70DFF04463B
:10369800E9E7FFF76FFFE6E7FFF78CFF2C46E2E765
:1036A800FFF7A4FFDFE7FFF7B6FFDCE7FFF705FE4C
:1036B800D9E770B505460C460B7803F06003202B5C
:1036C80007D0402B05D023B1FFF7F7FD0026304681
:1036D80070BD95F89C32013B022B26D8217901292F
:1036E80005D921462846FFF7E8FD0026EFE72846DA
:1036F800FFF7CAFC68B900F1AE0255F822209168BC
:1037080089B1C5F8D40293682146284698470646E9
:1037180000E00326E388002BD9D1002ED7D1284614
:1037280000F074F9D3E70326F4E721462846FFF7AB
:10373800C4FD0026CBE72DE9F04106460D468B88EF
:10374800DFB20C7804F06004202C08D0402C06D09E
:10375800DCB1FFF7B2FD00242046BDE8F081394610
:103768003046FFF793FC0446002840F0F980C6F87D
:10377800D40200F1AE0356F823309B68002BEBD03F
:103788002946304698470446E6E791F80180B8F1A3
:10379800010F31D0B8F1030F05D0B8F1000F67D091
:1037A800FFF78BFDD8E790F89C32DBB2022B04D0F0
:1037B800032B12D0FFF781FDCEE70FB1802F04D184
:1037C80029463046FFF779FDC6E73946FDF70AFA7C
:1037D80080213046FDF706FABEE74B8823B91FB1B2
:1037E800802F01D0CB881BB1304600F00FF9B3E72A
:1037F8003946FDF7F7F9F7E790F89C32DBB2022B70
:1038080004D0032B12D0FFF758FDA5E70FB1802F86
:1038180004D129463046FFF750FD9DE73946FDF7AC
:10382800E1F980213046FDF7DDF995E74B88002B5B
:1038380092D117F07F0F17D1304600F0E7F83946DC
:103848003046FFF723FC002886D1C6F8D40200F1E1
:10385800AE0256F822209268002A00F0838029469A
:1038680030469047044677E73946FDF7C3F9E3E762
:1038780090F89C22D2B2022A05D0032A28D0FFF75A
:103888001CFD444668E70FB1802F14D113F0800F58
:1038980015D107F07F0707EB8707B90001F5A87175
:1038A80031440431002301F80E3F0222304600F073
:1038B8007EF8444650E7FFF700FD44464CE707F022
:1038C8007F0707EB8707B900103131440431E9E776
:1038D8005BB2002B20DB07F00F0202EB820200EB49
:1038E800820292F8634124B3002B25DB07F07F03A3
:1038F80003EB83039C0004F5A874344404340FB12B
:10390800802F22D10023A373022204F10E01304636
:1039180000F04DF844461FE707F00F0202EB820261
:1039280000EB820292F82340002CDDD1FFF7C5FCA2
:1039380012E7FFF7C2FC0FE707F07F0303EB8303EF
:103948009C00103434440434D9E739463046FDF736
:1039580003F910B10123A373D6E70023A373D3E7B8
:103968000024F9E60446F7E600B370B50D4616469E
:103978000446FFF784FC01304300B3F5007F06D806
:103988009BB233802B7003236B7002230AE04FF441
:103998000073F6E7EA5401345A1CD2B20021A95444
:1039A8000233DBB22278002AF4D170BD704708B523
:1039B80013460222C0F894224361416283610A4699
:1039C8000021FDF727F9002008BD08B513460A466F
:1039D8000021FDF71FF9002008BD08B51346032292
:1039E800C0F89422C0F85431C0F86411C0F85831B6
:1039F8000A460021FDF716F9002008BD08B5134650
:103A08000A460021FDF70EF9002008BD08B504227A
:103A1800C0F8942200231A461946FDF7FBF8002047
:103A280008BD08B50522C0F8942200231A46194695
:103A3800FDF7F8F8002008BD10B5D0F8D43203F12E
:103A4800B00250F822408CB100EB820043687BB191
:103A580094F80002FF280DD09B6894F801222146B3
:103A68009847FF2384F80032002010BD0320FCE7AC
:103A78000020FAE70020F8E70A230380004870478F
:103A8800EC000020F8B506460F4F82213846FFF7B4
:103A9800D7FB054601213846FFF7D2FB04468121B2
:103AA8003846FFF7CDFB0DB11022AA711CB1402298
:103AB80022710022627118B1402202710022427103
:103AC800432333800048F8BD70000020F8B506464F
:103AD8000F4F82213846FFF7B3FB054601213846D0
:103AE800FFF7AEFB044681213846FFF7A9FB0DB16D
:103AF8001022AA711CB1402222710022627118B1F1
:103B08004022027100224271432333800048F8BDED
:103B180070000020F8B506460F4F82213846FFF79F
:103B28008FFB054601213846FFF78AFB04468121B1
:103B38003846FFF785FB0DB11022AA711CB100228F
:103B480022710222627118B10022027102224271AE
:103B5800432333800048F8BD7000002038B5D0F802
:103B6800D432B03350F8235095B10446FDF70AF823
:103B7800C5F80C02D4F8D432B03304EB830463687C
:103B8800DB6805F50371D5F804029847002038BDB5
:103B98000320FCE738B5D0F8C852D0F8D432B03397
:103BA80050F8234084B301F00F0303EB830200EBCA
:103BB800820252694AB103EBC30C05EB8C05ED692F
:103BC800B2FBF5FC05FB1C2292B10023C4F81432A9
:103BD800D0F8D432B03300EB830043681B69ABB133
:103BE8000A4604F50471D4F808029847002038BD45
:103BF80003EB830300EB830300245C612346224626
:103C0800FDF708F82046F2E70320F0E70020EEE78A
:103C1800F0B583B0D0F8D43203F1B00250F8227076
:103C280000228DF80720ADF80420002F7BD0044631
:103C38000D46097811F0600634D0202E6CD1EA8840
:103C48002AB311F0800F07D16B7887F80032EA8821
:103C58003F2A13D8D2B212E0B03300EB83035B687B
:103C68009B68394668789847EA88072A28BF072258
:103C780039462046FFF79BFE002651E0402287F890
:103C8800012239462046FFF7A8FE002648E0B03357
:103C980000EB83035B689B68002229466878984795
:103CA80000263DE06F780B2F31D8DFE807F00639A2
:103CB8003030303030303030162690F89C32DBB25D
:103CC800032B04D02946FFF7F8FA032628E002223E
:103CD80001A9FFF76CFE3E4622E090F89C32DBB269
:103CE800032B04D02946FFF7E8FA032618E001223F
:103CF8000DF10701FFF75BFE12E090F89C32DBB292
:103D0800032B0DD02946FFF7D8FA032608E02946E9
:103D1800FFF7D3FA032603E02946FFF7CEFA032676
:103D2800304603B0F0BD0326FAE738B504468121D2
:103D3800FCF750FF002584F8375001212046FCF796
:103D480049FF84F8775182212046FCF743FF84F825
:103D58004B506564D4F8D43203F1B00254F82220F1
:103D68009AB1B03304EB83035B685B689847D4F877
:103D7800D432B03354F82300FCF70EFFD4F8D43211
:103D8800B03344F82350C4F8BC52002038BD70B595
:103D980004464FF40770FCF7FBFE002849D005469F
:103DA8004FF407720021FCF757FAD4F8D432B03335
:103DB80044F82350C4F8BC52237C002B41D14FF463
:103DC8000073022281212046FCF7F9FE012684F8BF
:103DD80037604FF40073022231462046FCF7EFFEAD
:103DE80084F8776110236364082303228221204624
:103DF800FCF7E5FE012384F84B300026C5F8046281
:103E0800D4F8D432B03304EB83035B681B6898475B
:103E1800C5F81462C5F81862D5F8042262B3257C87
:103E28001DBB4FF4007301212046FCF7FBFE28461A
:103E380070BDD4F8D432B033002244F823200225D0
:103E4800F5E74023022281212046FCF7B8FE01262F
:103E580084F837604023022231462046FCF7AFFE43
:103E680084F8776110236364BEE74023012120466C
:103E7800FCF7D8FE0025DAE70225D8E739B1D0F8F3
:103E8800D432B03300EB8300416000207047032038
:103E98007047D0F8D432B03350F823302BB1C3F880
:103EA8000812C3F810220020704703207047D0F88A
:103EB800D432B03350F823301BB1C3F804120020B9
:103EC80070470320704708B5D0F8D432B03350F8A3
:103ED80023208AB1D2F814320BB1012008BD012386
:103EE800C2F81432D2F810328362D2F80822812143
:103EF800FCF790FE0020F1E70320EFE710B5D0F8BB
:103F0800D432B03350F8232092B1047C44B94FF432
:103F18000073D2F804220121FCF784FE204610BD6C
:103F28004023D2F804220121FCF77CFE0024F5E7A7
:103F38000324F3E7DFF834D0FEF786FF0C480D4979
:103F48000D4A002302E0D458C4500433C4188C42EC
:103F5800F9D30A4A0A4C002301E013600432A24252
:103F6800FBD3FCF751F9FCF799FB704700000220DE
:103F780000000020F800002020400008F800002081
:103F8800FC100020FEE70000F8B500BFF8BC08BC34
:103F98009E467047F8B500BFF8BC08BC9E467047FF
:103FA80048656C6C6F20555342210D0A00000000D3
:103FB80053544D3332205669727475616C20436FC7
:103FC8006D506F727400000053544D6963726F65D1
:103FD8006C656374726F6E696373000043444320B9
:103FE800436F6E666967000043444320496E7465F9
:103FF80072666163650000000000000000000000B8
:08400800010203040607080988
:0840100024C3FF7F0100000042
:04401800F1010008AA
:04401C00C9010008CE
:104020001A03000000000000000000000000000073
:10403000000000000000000000000000040309046C
:1040400012010002020200408304405700020102F4
:1040500003010000E5070008F1070008B5080008A3
:10406000910800087D080008D1080008F50800083C
:1040700041090008190900081D0900082509000860
:104080002109000801000000100000000024F400D5
:10409000090243000201008032090400000102020B
:1040A000010005240010010524010001042402027E
:1040B0000524060001070582030800100904010019
:1040C000020A000000070501024000000705810206
:1040D00040000000973D0008333D0008193C0008EF
:1040E00000000000413A00089D3B0008653B0008C5
:1040F0000000000000000000000000001D3B000860
:10410000D53A00088D3A0008813A00080A060002F4
:08411000000000400100000066
:0400000508003F3D73
:00000001FF
