:020000040800F2
:10000000000002200D5D00082D2100082F210008AE
:1000100031210008332100083521000800000000CC
:100020000000000000000000000000003721000870
:1000300039210008000000003B2100083D21000894
:100040005D5D00085D5D00085D5D00085D5D0008A8
:100050005D5D00085D5D00085D5D00085D5D000898
:100060005D5D00085D5D00085D5D00085D5D000888
:100070005D5D00085D5D00085D5D00085D5D000878
:100080005D5D00085D5D00085D5D00085D5D000868
:100090005D5D00085D5D00085D5D00085D5D000858
:1000A0005D5D00085D5D00085D5D00085D5D000848
:1000B0005D5D00085D5D00085D5D00085D5D000838
:1000C0005D5D00085D5D00085D5D00085D5D000828
:1000D0005D5D00085D5D00085D5D00085D5D000818
:1000E0005D5D00085D5D00085D5D00085D5D000808
:1000F0005D5D00085D5D00085D5D00085D5D0008F8
:100100005D5D00085D5D00085D5D00085D5D0008E7
:100110005D5D00085D5D00085D5D00085D5D0008D7
:100120005D5D00085D5D00085D5D00085D5D0008C7
:100130005D5D00085D5D00085D5D00085D5D0008B7
:100140005D5D00085D5D00085D5D000845210008FB
:100150005D5D00085D5D00085D5D00085D5D000897
:100160005D5D00085D5D00085D5D00085D5D000887
:100170005D5D00085D5D00085D5D00080000000039
:080180005D5D00085D5D0008F3
:100190000348044B834202D0034B03B11847704716
:1001A0007801002078010020000000000548064B7F
:1001B0001B1AD90F01EBA301491002D0034B03B165
:1001C00018477047780100207801002000000000E7
:1001D00010B5064C237843B9FFF7DAFF044B13B18F
:1001E0000448AFF300800123237010BD7801002084
:1001F00000000000605D000808B5044B1BB1044915
:100200000448AFF30080BDE80840CFE700000000DD
:100210007C010020605D000870B50F4B0F4DAB42B4
:10022000A3EB050607D0B610002455F8043B0134B3
:100230009847A642F9D805F093FD094D094B5E1B7E
:10024000AB424FEAA60606D0002455F8043B013421
:100250009847A642F9D870BDB85F0008B85F00089B
:10026000B85F0008BC5F0008036A2DE9F0418468AC
:1002700080460E46002B3BD0A3891B0717D5236968
:10028000ABB1013EA36816F8015F013BA360EDB17D
:10029000002B07DAA7699F4222462946404610DC18
:1002A0000A2D0ED023685A1C22601D70EAE72146F1
:1002B000404600F08BFB0028E3D04FF0FF30BDE854
:1002C000F08100F061FE0130DCD1F6E7002B09DAA5
:1002D00022460A21404600F057FE0130EDD00A20A8
:1002E000BDE8F08123680A22591C21601A70F6E7E4
:1002F00000F0F4F8C0E700BF024B01461868FFF7B2
:10030000B3BF00BF0C00002000207047024A034921
:10031000034800F039BB00BF00000020F5060008CC
:10032000100000200C4B4168994210B5044601D0E2
:1003300000F0E0F9A168094B994202D0204600F094
:10034000D9F9E168064B994204D02046BDE8104037
:1003500000F0D0B910BD00BF94010020FC010020C6
:1003600064020020002070472DE9F8432A4C2B49F5
:10037000DFF8BC90DFF8BC80294FC4F838110025A5
:1003800004230822294604F15C00264EE360C4E9F8
:100390000055C4E90455A5606566A56100F0C6F87E
:1003A000214B63670822294604F1C400C4E90849C7
:1003B000C4E90A87C4E91A55C4E91E552567C4F87B
:1003C000CC50C4F88050266300F0B0F8174BC4F846
:1003D000DC30294604F16803082204F59670C4F85D
:1003E0008830C4E92398C4E92576C4E93455C4E9C2
:1003F0003855C4F8D850C4F83451C4F8E85000F067
:1004000095F804F1D003C4E93D98C4E93F76C4F8F7
:10041000F030BDE8F88300BF940100200D03000810
:10042000B5100008D91000080900010012000200F0
:100430004D10000875100008F8B5254BD3F8383179
:100440000646002B3CD0234FD7E90134013B04D5AD
:100450001DE05A1C04F1680419D0B4F90C50013B9A
:10046000002DF6D11C4BE360C4E90155C4E90455E5
:1004700065662560A5610822294604F15C0000F04C
:1004800055F8C4E90D55C4E912552046F8BD3D683C
:100490000DB12F46D8E74FF4D671304600F096F9EB
:1004A000044680B10423C0E900530C302946A06003
:1004B0004FF4D072254600F039F83C602F46C3E770
:1004C000FFF752FFBFE70C2338603360DDE700BF62
:1004D00094010020000000200100FFFF036A03B127
:1004E0007047044B044AD3F838310262002BF7D12D
:1004F0003AE700BF9401002025030008704700BFC1
:10050000704700BF024A0349002000F03DBA00BF17
:100510000000002009030008024A0349002000F0FF
:1005200033BA00BF0000002065030008830730B520
:1005300047D0541E002A3ED0CAB2034601E0013C17
:1005400039D303F8012B9D07F9D1032C2CD9CDB257
:1005500005EB05250F2C05EB054535D9A4F1100257
:1005600022F00F0C03F1100EE6444FEA121C1A465B
:10057000C2E90055C2E9025510327245F8D10CF1BA
:10058000010214F00C0F03EB021204F00F0C13D055
:10059000ACF1040323F003030433134442F8045B77
:1005A0009342FBD10CF003042CB1C9B21C4403F8F4
:1005B000011BA342FBD130BD64461346002CF4D18D
:1005C000F9E703461446C0E71A46A446E0E700BF31
:1005D000B1F90C302DE9F0411E070C4680463DD4A0
:1005E0004A68002A56DDE56A002D34D00022D8F88A
:1005F0000060C8F8002013F48052216A57D101230B
:100600004046A847451C024666D0B4F90C30E56A5E
:10061000216A580705D56368D21A636B0BB1236C46
:10062000D21A00234046A847431C42D000236360EF
:1006300023692360A389DF0400D56065616BC8F876
:10064000006041B104F14403994202D0404600F0F9
:100650003DF9002363630020BDE8F0810E69002EA0
:10066000F9D09B070D6808BF4B690E6018BF0023C7
:10067000AD1B8B600BE02B463246216AA76A4046D1
:10068000B847B0F1000CA5EB0C05664406DD002D63
:10069000F1DCE0E70A6C002AA5DCDCE7B4F90C30F9
:1006A00043F04003A3814FF0FF30BDE8F081626D5D
:1006B000AFE7D8F80010B4F90C301D29F0D80C4A77
:1006C000CA40D507ECD52269226000226260DA04B4
:1006D000B4D50029B1D0B1E7D8F80030002B94D0C0
:1006E0001D2B01D0162BD9D1C8F80060B3E700BF8D
:1006F000010040200B69B3B110B5044682B008B1C7
:10070000036A5BB1B1F90C3013B9002002B010BD1F
:10071000204602B0BDE81040FFF75ABF0191FFF735
:10072000DDFE0199EEE70020704700BFB8B138B593
:100730000D4A0369156804462BB10DB12B6A53B1FC
:10074000B4F90C300BB9002038BD21462846BDE86D
:100750003840FFF73DBF2846FFF7C0FEF0E7034AE9
:100760000349044800F010B90C00002000000020EC
:10077000F506000810000020014B1868704700BF04
:100780000C00002070B5104E336805460C46B3B11E
:100790002146284600F048FC431C0CD0C41C24F021
:1007A0000304A04205D0211A284600F03DFC013088
:1007B00001D0204670BD4FF0FF34204670BD194671
:1007C00000F032FC3060E3E7D00200202DE9F8436E
:1007D000CD1C25F0030508350C2D38BF0C25002D48
:1007E000064618DBA94216D8DFF8DC8000F050F985
:1007F000D8F80420A2B1144603E0636822467BB116
:100800001C4623685B1BF8D40B2B1FD894426368EB
:1008100054D053600CE00C2333600020BDE8F88313
:1008200029463046FFF7AEFF431C044619D0056049
:10083000304600F02FF904F10B00231D20F00700D3
:10084000C21A1CBF1B1AA350BDE8F8836119944259
:10085000256014BF5160C8F80410635163684B6091
:10086000E6E7D8F804701FB33C467F68002FFBD141
:1008700023683946304604EB030900F0D5FB814577
:1008800016D12368ED1A29463046FFF77BFF013069
:100890000ED02368D8F804202B442360536883B11A
:1008A000A34203D01A465B689C42FBD10023B0E709
:1008B0000C233360304600F0EDF8AEE7C8F80430A2
:1008C000B6E7C8F80470B3E7D0020020002950D082
:1008D00038B551F8043C0C1F002BB8BFE41805468E
:1008E00000F0D6F8274A13682BB1A3420CD921682F
:1008F000601883422CD0636028461460BDE83840FD
:1009000000F0C8B8A3420FD81A465B68002BF9D193
:1009100011685018844217D02CD363605460284665
:10092000BDE8384000F0B6B811685018A04214D0A5
:1009300020D8216860188342EFD118685B680844AA
:10094000C4E900035460EAE723680B441360E6E758
:1009500018685B6808442060CDE72068014450189F
:1009600083421160DBD1D3E900040144C2E90014E1
:10097000D5E770470C232B602846BDE8384000F0CF
:1009800089B800BFD40200202DE9F8430746884605
:1009900016464FF00009D6E90154013D10D4A38951
:1009A000012B08D9B4F90E3001332146384602D064
:1009B000C04749EA0009013D6B1C04F16804EED10F
:1009C0003668002EE7D14846BDE8F88338B52F4B8E
:1009D0001B6805460C4613B11A6A002A4BD0B4F9BD
:1009E0000C3018071CD5226922B313F0010107D07F
:1009F000616900204942A060A1613AB1002038BD80
:100A0000980758BF6169A160002AF7D1190658BF3D
:100A10001046F4D543F04003A3814FF0FF3038BDBA
:100A2000D9062CD55A0712D4226943F00803A381B2
:100A3000002ADAD103F42071B1F5007FD5D0214628
:100A4000284600F029F8B4F90C302269CDE7616B33
:100A500051B104F14402914204D02846FFF736FF19
:100A6000B4F90C300022626322690021C4E900213C
:100A700023F02403D9E71846FFF730FDAFE709223A
:100A800043F040032A60A381C7E700BF0C000020A9
:100A9000704700BF704700BF70B5B1F90C300C460D
:100AA000990796B007D504F147030122C4E904323F
:100AB000236016B070BDB4F90E100029054629DB7D
:100AC0006A4601F02BF8002822DB4FF480612846AB
:100AD000019EFFF77BFE88B3A389206043F080036B
:100AE00006F47046A381B6F5005F4FF48063C4E955
:100AF0000403DED1B4F90E10284600F0A9F800284E
:100B0000D7D0A38923F0030343F00103A381D0E7E7
:100B1000B4F90C3013F0800F14BF40264FF48066F8
:100B200031462846FFF752FE40B1A389206043F0CA
:100B30008003C4E90406A38116B070BDB4F90C307B
:100B40009A05B6D423F0030304F1470243F00203ED
:100B50000121C4E90421A3812260AAE770B50C46F3
:100B6000B1F90E10002996B015461E460FDB6A46F5
:100B700000F0D4FF00280ADB019B03F47043A3F5C7
:100B80000053B3FA83F34FF480625B0908E0A28953
:100B900012F0800F4FF0000314BF40224FF4806228
:100BA000002033602A6016B070BD00BF032A30B445
:100BB00015D941EA0004A40784460B4604D0541E0C
:100BC0000FE0043A032A08D91946604653F8044B4B
:100BD0005CF8045BA542F4D0F1E760461946541E68
:100BE0007AB1431E0139021901E09A4209D013F883
:100BF000010F11F801CF6045F7D0A0EB0C0030BC1D
:100C00007047002030BC70470EB400B582B003AB13
:100C1000816853F8042B019300F072F802B05DF87C
:100C200004EB03B0704700BF0FB400B5074983B0B1
:100C300004AB086853F8042B8168019300F060F856
:100C400003B05DF804EB04B0704700BF0C00002057
:100C500038B5074D0022044608462A6002F02EF8F7
:100C6000431C00D038BD2B68002BFBD0236038BD5F
:100C7000D80200209368013B002B936011DA10B476
:100C80009469A34209DB0A2907D01368581C106035
:100C9000197008465DF8044B70475DF8044B00F08E
:100CA00073B91368581C106019700846704700BF6C
:100CB0009BB1F8B5134406460F46541E5D1E01E075
:100CC000AC4208D014F8011F3A463046FFF7D2FF75
:100CD000431CF5D1F8BD0020F8BD0020704700BFCF
:100CE000936810B514461BB918460023636010BD05
:100CF00000F0F6F90023A3600023636010BD00BF7D
:100D00002DE9F04FA1B08B4691461C46049018B1D6
:100D1000036A002B00F01C81BBF80C30180740F16F
:100D20009580DBF81030002B00F090800023CA463D
:100D30000D9343F22003ADF839309AF80030864E17
:100D400007940127002B79D0D14604E019F8013F20
:100D5000002B00F08580252BF8D1B9EB0A0840F074
:100D6000828099F80030002B68D000234FF0FF32CA
:100D7000CDE9092309F1010908930B938DF863303C
:100D80001E9305E0089A07FA03F31A430892A14656
:100D90004C46052214F8011B304600F0B9FBA24670
:100DA000831B0028EED1089BD90644BF20228DF872
:100DB000632099F800101A0744BF2B228DF8632096
:100DC0002A2966D1079A1168043200290792C0F2D5
:100DD0009A800B9199F801102E2970D05F4C032254
:100DE000204600F095FB38B1089B001B4022824052
:100DF00013430AF1010A08931AF8011B58488DF8A9
:100E00003810062200F084FB002800F08280554B49
:100E1000002B69D007AA0092534B04985A4608A9A0
:100E2000AFF300800390039B013307D00D9B039A1F
:100E300013440D939AF80030002B85D1BBF80C3089
:100E40005B060AD40D9821B0BDE8F08F049859468E
:100E5000FFF7BCFD00283FF469AF4FF0FF30F2E729
:100E6000B9EB0A08EAD00AF1FF35CDF81490A9468B
:100E7000049D01E0A0453ED94C465A4619F8011F91
:100E80002846FFF7F7FE02340130A4EB0A04F1D143
:100E9000D4E7A1F13002092A88BFCA469CD80B9B2F
:100EA00000E00134217803EB830302EB4303A1F15B
:100EB0003002092AF5D92E290B93A2468ED19AF831
:100EC00001102A292FD1079B9AF802101A6809925B
:100ED0000433002A0AF102000793B8BF4FF0FF3332
:100EE0008246B8BF099379E7079B073323F00703CE
:100EF000083307939AE70D99DDF81490414499F867
:100F000000300D912FE7494243F002030B91089303
:100F100060E707AA0092144B04985A4608A900F00B
:100F2000BBFC03907FE7A1F130020023092A09935B
:100F30000AF1010A3FF652AF1AF8011F03EB8303CF
:100F400002EB4303A1F13002092AF5D9099345E7E1
:100F5000FFF7C4FAE0E600BF345F00083C5F00081A
:100F6000405F000800000000B10C000810B4054C00
:100F70008446134620685DF8044B0A466146FFF735
:100F8000BFBE00BF0C000020F8B50D461446064653
:100F900010B1036A002B37D0A389A269A2601A0797
:100FA00019D52369BBB122686169D31AEDB29942A0
:100FB0002F4620DD0133A1680139A160511C216059
:100FC000157062699A420DD0A389DB0701D50A2DFD
:100FD00008D03846F8BD21463046FFF7F7FC38B94F
:100FE0002369E0E721463046FFF784FB0028F0D074
:100FF0004FF0FF37EDE721463046FFF77BFB002837
:10100000F6D122680123D6E7FFF768FAC4E700BFEC
:1010100010B4044C03460A4620685DF8044B194698
:10102000FFF7B2BF0C00002038B5074D0022044680
:1010300008462A6001F0F8FD431C00D038BD2B683B
:10104000002BFBD0236038BDD802002010B50C4621
:10105000B1F90E1000F046FB002803DB636D03447A
:10106000636510BDA38923F48053A38110BD00BF25
:10107000002070472DE9F0410C46B1F90C101F46D5
:10108000CB05054616460BD421F48051A1813B4681
:10109000B4F90E1032462846BDE8F04100F06ABDB2
:1010A000B4F90E100223002200F04EFDB4F90C102A
:1010B000EAE700BF10B50C46B1F90E1000F044FD90
:1010C000B4F90C30421C0EBF23F4805343F4805318
:1010D0006065A38110BD00BFB1F90E1000F080B9AA
:1010E0009368002B00F0F8802DE9F04FB1F90CC0A7
:1010F0001CF0080F83B0904681460C4631D00B6936
:101100007BB31CF00207D8F8006038D00027D4F871
:1011100028B0216ADFF8C4A23D4655452B463A4621
:1011200028BF53464846C5B1D847002840F3CA8077
:10113000D8F808301B1A07442D1AC8F80830002BBD
:1011400000F0B68055452B46D4F828B0216A28BF58
:1011500053463A464846002DE6D1D6E90075083692
:10116000DBE721464846FFF731FC002840F0AF801E
:10117000B4F90CC0D8F800601CF00207C6D11CF00E
:10118000010A63D12368A168574618468B46002F91
:1011900058D01CF4007F00F0B580B9420A4600F236
:1011A000E1801CF4906F2FD0216962695D1A02EB17
:1011B000420202EBD2726B1C52103B44934292BF2C
:1011C00093469B461A461CF4806F00F0EA80114655
:1011D0004846FFF7FBFA002800F0F9802A4621690B
:1011E000009000F0E5F9A289009B22F4906242F0A1
:1011F0008002A2815819ABEB0505C4F814B0236135
:10120000A5602060BB463A465146009200F0FAF8CD
:10121000A1682368009AA1EB0B011A443D46A16026
:1012200022600027D8F808305B1BAA44C8F80830B1
:10123000002B3DD02368A168B4F90CC018468B463A
:10124000002FA6D1D6E900A708369EE73846BB4650
:101250003D460097002D41D0002846D0009A2068D6
:10126000A168D4E90473AA4228BF2A46B84204D927
:1012700001EB030A524500F38580934275DC216A35
:10128000A76A5A464846B847B0F1000A1ADD009BE3
:10129000B3EB0A0300930FD00120D8F80830A3EB7A
:1012A0000A03D344A5EB0A05C8F80830002BD1D1B6
:1012B000002003B0BDE8F08F21464846FFF71AFA38
:1012C0000028EAD0B4F90C3043F04003A3814FF07A
:1012D000FF3003B0BDE8F08F0020704775683346DB
:1012E0000836002DFAD0D3F800B02A460A21584615
:1012F00000F00EF9002867D00130A0EB0B0300933B
:101300001A46ACE722699A4214D36269BA4211D8EC
:101310006FF00043BB4228BF3B46A56A93FBF2F344
:10132000216A02FB03F348465246A847051EC9DD61
:101330007F1B77E7B94228BF39460D4618460A4653
:10134000514600F05FF8A1682368491B2B44A16057
:1013500023600029ECD121464846FFF7CBF900284D
:10136000E6D0AFE7BB463A464EE75946019200F059
:1013700049F8019AA3689B1AA36023681344236069
:10138000924684E75946524600F03CF8236853449D
:10139000236021464846FFF7ADF900283FF477AFB8
:1013A00090E7484600F0B4F9034600287FF422AFE6
:1013B00021694846FFF78AFAB4F90C300C22C9F8C3
:1013C000002023F080037FE76A1C009247E70C228D
:1013D000B4F90C30C9F8002076E700BF00FCFF7FAD
:1013E00038B5074D0022044608462A6001F05EFC2D
:1013F000431C00D038BD2B68002BFBD0236038BDC8
:10140000D802002088420ED98B1883420BD900EBFA
:10141000020C002A6ED0624613F801CD02F801CD0D
:101420009942F9D170470F2A0FD8034602F1FF3CC9
:10143000002A5FD00CF1010C013B8C4411F8012B08
:1014400003F8012F6145F9D1704740EA01039B077A
:1014500051D1A2F1100370B501F1200C23F00F055A
:1014600001F1100E00F11004AC441B095EF8105C91
:1014700044F8105C5EF80C5C44F80C5C5EF8085CA8
:1014800044F8085C5EF8045C44F8045C0EF1100E4D
:10149000E64504F11004E9D1013312F00C0F01EB21
:1014A000031102F00F0400EB031328D0043C24F0D6
:1014B00003064FEA940C1E441C1F8E465EF8045B24
:1014C00044F8045FB442F9D10CF1010402F00302C4
:1014D00003EB840301EB840102F1FF3C4AB10CF100
:1014E000010C013B8C4411F8012B03F8012F6145DD
:1014F000F9D170BD704702F1FF3C03469AE72246DE
:10150000EAE700BF0000000000000000000000004B
:1015100001F0FF01102A2BDB10F0070F08D010F8A4
:10152000013B013A8B422DD010F0070F42B3F6D1A8
:10153000F0B441EA012141EA014122F007047FF0C1
:1015400000070023F0E80256083C85EA010586EA18
:10155000010685FA47F5A3FA87F586FA47F6A5FA54
:1015600087F68EB9EED1F0BC01F0FF0102F0070260
:1015700032B110F8013B013A83EA010313B1F8D10B
:101580000020704701387047002D06BF35460338EC
:10159000073815F0010F07D1013015F4807F02BF25
:1015A000013015F4C03F0130F0BC0138704700BF76
:1015B000844641EA000313F003036DD1403A41D35E
:1015C00051F8043B40F8043B51F8043B40F8043B1D
:1015D00051F8043B40F8043B51F8043B40F8043B0D
:1015E00051F8043B40F8043B51F8043B40F8043BFD
:1015F00051F8043B40F8043B51F8043B40F8043BED
:1016000051F8043B40F8043B51F8043B40F8043BDC
:1016100051F8043B40F8043B51F8043B40F8043BCC
:1016200051F8043B40F8043B51F8043B40F8043BBC
:1016300051F8043B40F8043B51F8043B40F8043BAC
:10164000403ABDD2303211D351F8043B40F8043B4C
:1016500051F8043B40F8043B51F8043B40F8043B8C
:1016600051F8043B40F8043B103AEDD20C3205D35C
:1016700051F8043B40F8043B043AF9D2043208D054
:10168000D2071CBF11F8013B00F8013B01D30B88C6
:1016900003806046704700BF082A13D38B078DD0A4
:1016A00010F003038AD0C3F10403D21ADB071CBF76
:1016B00011F8013B00F8013B80D331F8023B20F8E0
:1016C000023B7BE7043AD9D3013A11F8013B00F819
:1016D000013BF9D20B7803704B7843708B788370A1
:1016E0006046704738B50C46084D84461146204682
:1016F0001A4600232B60644601F0BAFA431C00D05E
:1017000038BD2B68002BFBD0236038BDD8020020E9
:101710002DE9F041144641B30AB306460D4600F0E8
:101720003FFA8442074602D8B4EB500F13D8214643
:101730003046FFF74BF8804650B1BC42224629465E
:1017400028BF3A46FFF734FF29463046FFF7BEF878
:101750004046BDE8F081A8464046BDE8F081A0467D
:10176000FFF7B4F84046BDE8F081BDE8F04111460E
:10177000FFF72CB82DE9F84F92461F460A698B688F
:10178000DDF828909A42B8BF1A46CAF8002091F8AE
:1017900043300C46064613B10132CAF800202268D5
:1017A00091065FD5DAF800300233CAF800302268BB
:1017B00012F0060F11461DD1E1689942D8BF1146BB
:1017C00018DD4FF0000804F1190B05E0E568DAF8C0
:1017D0000030ED1A45450CDD01235A4639463046A6
:1017E000C847013008F10108F0D14FF0FF30BDE8E3
:1017F000F88F216894F84330003B18BF01238A0614
:101800000AD5E1185A1C302081F84300224494F88C
:10181000451082F84310023304F143023946304642
:10182000C8470130E1D02368DAF80050216903F09D
:101830000603042BD4E902201BD08A4220DD4FF09E
:101840000008521A90441A34002501E0454517DA81
:101850000123224639463046C847013005F10105CB
:10186000F4D1C2E712F0060F0DD0003B18BF0123E0
:10187000D2E7401B8A4220EAE078E2DC0028E2DC82
:101880000020BDE8F88FE168DAF800309942D8BF4F
:10189000114696DCAEE700BF2DE9F047174684B04D
:1018A0000A7E0C9D0C460646984601F1430C002A20
:1018B00035D0A2F15803D9B2202969D8202B67D896
:1018C000DFE813F0E600660066006600660066006A
:1018D00066006600660066006600AC007000660088
:1018E00066006600660070006600660066006600BE
:1018F00021008300C60066006600B6006600830013
:1019000066006600EC002B6822686169181D28607B
:1019100010061B6802D4520600F1E0801960002313
:10192000E1462361CDF800803B4603AA21463046BC
:10193000FFF720FF013020D023694A463946304660
:10194000C047013019D02368E068DDF80C909B0790
:1019500018D5484516DD002504F1190A04E0E068B1
:10196000A0EB0903AB420DDD012352463946304658
:10197000C047013005F10105F1D14FF0FF3004B04F
:10198000BDE8F0874845B8BF484604B0BDE8F087D9
:1019900084F84220012004F142090023206184F8E8
:1019A0004330BFE72A682368111D1806296002D456
:1019B000590600F195801068014600286268C0F25F
:1019C000938054484FF00A0E15E020682B6810F001
:1019D000800F53F8041B02D1400648BF89B26F2A1A
:1019E0004C482B6014BF4FF00A0E4FF0080E002336
:1019F000626884F84330002AA26051DB236823F038
:101A00000403236000294BD1002A7BD1E146BEF1BB
:101A1000080F56D0ACEB0903236183E72B681A68E3
:101A200004332B6004F1420984F842200120B4E71A
:101A30002B686268191D2960D3F800900021484680
:101A4000FFF766FD002863D0A0EB09006060A4E703
:101A5000236843F02003236078222F4884F8452030
:101A60002A6813F0800F52F8041B03D113F0400FC3
:101A700018BF89B22A60DA0744BF43F0200323600D
:101A800019B9236823F0200323604FF0100EAEE74E
:101A9000582384F845301F482368E1E72368DBE7D3
:101AA0007546E146B1FBF5F305FB131A0A46AA4257
:101AB00010F80A1009F8011D1946F3D2BEF1080FFB
:101AC000A8D12368DD07A5D5626823699A42A1DC05
:101AD000302309F8013C09F1FF399BE719801EE723
:101AE000B2F90010084668E72D20002AA26084F8A9
:101AF000430002DB23F0040323600A250548494222
:101B0000AE46CEE7037884F8423004F142097EE71E
:101B1000606842E7485F00085C5F000870B50C46EB
:101B2000084D03460026204611461C462E6001F053
:101B3000C0F8431C00D070BD2B68002BFBD0236085
:101B400070BD00BFD802002038B50C46084D844651
:101B5000114620461A4600232B60644601F0B0F877
:101B6000431C00D038BD2B68002BFBD0236038BD50
:101B7000D802002038B50C46084D84461146204650
:101B80001A4600232B60644601F082F8431C00D003
:101B900038BD2B68002BFBD0236038BDD802002055
:101BA00051F8043C181F002BBCBF0B58C0187047DD
:101BB00053B94AB9002908BF00281CBF4FF0FF31B4
:101BC0004FF0FF3000F06AB9ADF1080C6DE904CEBA
:101BD00000F006F8DDF804E0DDE9022304B0704708
:101BE0002DE9F047089D0E4604460F46002B4AD1CA
:101BF00094468C45B2FA82F260D942B1C2F1200318
:101C0000974020FA03F30CFA02FC1F4394404FEA7A
:101C10001C4E1FFA8CF6B7FBFEF1230C0EFB11775E
:101C200043EA074301FB06F098420AD91CEB030381
:101C300001F1FF3780F01581984240F2128102399C
:101C400063441B1AA4B2B3FBFEF00EFB103344EA4C
:101C5000034400FB06F6A6420AD91CEB040400F17B
:101C6000FF3380F00081A64240F2FD8064440238D8
:101C700040EA0140A41B00211DB1D4400023C5E966
:101C80000043BDE8F0878B4205D90DB1C5E90001DD
:101C900000210846F5E7B3FA83F1002946D1B342A3
:101CA00002D3824200F2F580841A66EB030201201F
:101CB0001746002DE5D0C5E90047E2E7002A40F0CD
:101CC0009380A1EB0C034FEA1C471FFA8CFE012105
:101CD000B3FBF7F607FB1630230C43EA00430EFB79
:101CE00006F0984208D91CEB030306F1FF3802D234
:101CF000984200F2D08046461B1AA4B2B3FBF7F01C
:101D000007FB103344EA03440EFB00FEA64508D946
:101D10001CEB040400F1FF3302D2A64500F2B680AA
:101D20001846A4EB0E0440EA0640A5E7C1F12007DF
:101D30008B4022FA07FC4CEA030C06FA01FE20FA5B
:101D400007F426FA07F344EA0E0400FA01F84FEA12
:101D50001C404FEA1449B3FBF0FE1FFA8CF600FB5F
:101D60001E3349EA03430EFB06F9994502FA01F2D4
:101D70000BD91CEB03030EF1FF3A80F085809945E7
:101D800040F28280AEF1020E6344A3EB0909A4B2D3
:101D9000B9FBF0F300FB139944EA094403FB06F690
:101DA000A64208D91CEB040403F1FF3068D2A64216
:101DB00066D9023B644443EA0E40A41BA0FB02E642
:101DC000B4427346B14652D34FD05DB1B8EB030273
:101DD00064EB090404FA07F722FA01F31F43CC402D
:101DE000C5E9007400214CE7C2F1200120FA01F39B
:101DF0000CFA02FC26FA01F1964033434FEA1C47E5
:101E00001FFA8CFEB1FBF7F007FB1016190C41EA24
:101E1000064100FB0EF68E4204FA02F408D91CEBD0
:101E2000010100F1FF382DD28E422BD902386144D6
:101E3000891B9BB2B1FBF7F607FB161143EA01437E
:101E400006FB0EF1994208D91CEB030306F1FF389B
:101E500014D2994212D9023E63445B1A46EA004109
:101E600036E73946EDE6184602E7F045ADD2BEEB5F
:101E7000020366EB0C060138B146A6E74646ECE7DE
:101E8000034698E74046D3E7D6467EE764440238E7
:101E900047E708460DE7023E63442DE7704700BF61
:101EA00030B58BB0002405940694079408940994E7
:101EB0000194224B1A6B42F080021A631A6B02F0F3
:101EC00080020192019A02941A6B42F001021A6395
:101ED0001A6B02F001020292029A03941A6B42F00A
:101EE00008021A631A6B02F008020392039A049420
:101EF0001A6B42F004021A631B6B03F00403049391
:101F0000049B0F4D22464FF4A841284600F099FD4E
:101F10004FF4A8430593012306930794089405A959
:101F2000284600F091FC4FF4E07305930694079463
:101F300005A9044800F088FC0BB030BD0038024011
:101F4000000C02400008024000B583B001904FF041
:101F5000FF33012201A9034801F057F9019803B0AA
:101F60005DF804FBE002002070B58AB005460E461D
:101F70000DF1040C114C0FCCACE80F000FCCACE809
:101F80000F002368CCF8003034466EB10AAB03EB87
:101F9000850353F8241C0A48FEF746FE21462846CE
:101FA00000F0F8FF0AB070BD0AAB03EB850353F8ED
:101FB000241C0448FEF738FEF0E700BF785D0008F7
:101FC0009C5D0008B85D000872B6FEE708B50A48D7
:101FD0000A4B03604FF4E133436000238360C36026
:101FE00003610C2242618361C36101F0DEF800B934
:101FF00008BDFFF7E9FF00BFE002002000440040F9
:1020000000B595B03022002108A8FEF78FFA002312
:10201000039304930593069307930193204A116C4D
:1020200041F080511164126C02F080520192019AC9
:1020300002931C4B1A6842F480421A601B6803F436
:1020400080430293029B012308934FF4803309934A
:1020500002230E934FF480020F920F2210929022CF
:10206000119212930523139308A800F0C7F898B9AA
:102070000F23039302230493002305934FF4A053EB
:1020800006934FF480530793032103A800F006FB47
:1020900020B915B05DF804FBFFF796FFFFF794FF3A
:1020A000003802400070004008B500F073FDFFF7F3
:1020B000A7FFFFF7F5FEFFF789FF01F00DF900F02C
:1020C00001FE00F0E9FE1148FEF716F91048FEF790
:1020D00013F91048FEF710F90F48FEF70DF90F48F5
:1020E000FEF70AF90E48FEF707F90E48FEF704F965
:1020F00000F076FD0C4B1B68C01A0928F8D900F0D7
:102100006FFD094B186000F02FFEF1E7D05D00086D
:10211000045E0008245E0008405E0008585E000867
:10212000705E0008A45E0008DC020020FEE7FEE707
:10213000FEE7FEE7FEE770477047704708B500F01E
:1021400043FD08BD08B5024801F000FE08BD00BF10
:102150007408002082B0002100910B4B5A6C42F4AD
:1021600080425A645A6C02F480420092009A0191B3
:102170001A6C42F080521A641B6C03F08053019376
:10218000019B02B0704700BF0038024000B589B023
:102190000023039304930593069307930268154B5A
:1021A0009A4202D009B05DF804FB0021019103F5C9
:1021B000FA331A6C42F400321A641A6C02F40032D8
:1021C0000192019A02911A6B42F001021A631B6B91
:1021D00003F001030293029B0C2303930223049355
:1021E000032306930723079303A9034800F02CFB5E
:1021F000D8E700BF0044004000000240002800F083
:10220000E08170B582B00446036813F0010F3BD043
:102210009F4B9B6803F00C03042B2CD09C4B9B68BA
:1022200003F00C03082B21D06368B3F5803F4FD037
:10223000B3F5A02F52D0964B1A6822F480321A6060
:102240001A6822F480221A606368002B50D000F0D4
:10225000C7FC05468E4B1B6813F4003F14D100F0F9
:10226000BFFC401B6428F5D90320B1E1884B5B68B3
:1022700013F4800FD8D0864B1B6813F4003F03D0B3
:102280006368002B00F09F81236813F0020F54D085
:102290007F4B9B6813F00C0F3ED07D4B9B6803F087
:1022A0000C03082B33D0E368002B68D0794B012254
:1022B0001A6000F095FC0546754B1B6813F0020F81
:1022C00054D100F08DFC401B0228F5D903207FE19A
:1022D0006F4A136843F480331360B5E76C4B1A6898
:1022E00042F480221A601A6842F480321A60ABE726
:1022F00000F076FC0546664B1B6813F4003FC3D024
:1023000000F06EFC401B6428F5D9032060E1604BAF
:102310005B6813F4800FC6D15D4B1B6813F0020F8E
:1023200003D0E368012B40F05081594A136823F031
:10233000F803216943EAC1031360236813F0080F0F
:1023400042D063696BB3534B0122C3F8802E00F077
:1023500047FC05464E4B5B6F13F0020F34D100F083
:102360003FFC401B0228F5D9032031E1484A13689D
:1023700023F0F803216943EAC1031360DDE7454B0D
:1023800000221A6000F02CFC0546414B1B6813F03C
:10239000020FD2D000F024FC401B0228F5D9032004
:1023A00016E13C4B0022C3F8802E00F019FC0546D4
:1023B000374B5B6F13F0020F06D000F011FC401B8F
:1023C0000228F5D9032003E1236813F0040F77D026
:1023D0002F4B1B6C13F0805F33D1002301932C4BE8
:1023E0001A6C42F080521A641B6C03F08053019304
:1023F000019B0125284B1B6813F4807F23D0A36821
:10240000012B34D0052B38D0214B1A6F22F001025A
:102410001A671A6F22F004021A67A368002B3DD0D6
:1024200000F0DEFB06461A4B1B6F13F0020F46D17D
:1024300000F0D6FB801B41F288339842F3D9032089
:10244000C6E00025D6E7144A136843F4807313608E
:1024500000F0C6FB0646104B1B6813F4807FCED1FC
:1024600000F0BEFB801B0228F5D90320B0E0084A2B
:10247000136F43F001031367CFE7054B1A6F42F068
:1024800004021A671A6F42F001021A67C5E700BF1B
:1024900000380240000047420070004000F0A0FBFE
:1024A0000646524B1B6F13F0020F08D000F098FB4A
:1024B000801B41F288339842F3D9032088E0EDB9BC
:1024C000A369002B00F08380484A926802F00C0256
:1024D000082A51D0022B17D0454B00221A6600F073
:1024E0007FFB0446414B1B6813F0007F42D000F095
:1024F00077FB001B0228F5D9032069E03B4A136CE7
:1025000023F080531364DBE7394B00221A6600F096
:1025100067FB0546354B1B6813F0007F06D000F0C3
:102520005FFB401B0228F5D9032051E0E369226AD2
:102530001343626A43EA8213A26A5208013A43EAE9
:102540000243E26A43EA0263284A5360284B0122AD
:102550001A6600F045FB0446244B1B6813F0007F0D
:1025600006D100F03DFB001B0228F5D903202FE027
:1025700000202DE000202BE0012B2BD01B4B5B68B3
:1025800003F48001E269914226D103F03F02216AFF
:102590008A4223D1616A47F6C0721A40B2EB811FAA
:1025A0001ED103F44031A26A5208013AB1EB024F46
:1025B00018D103F07063E26AB3EB026F14D100200C
:1025C00006E001207047012002E0012000E0002029
:1025D00002B070BD0120FBE70120F9E70120F7E719
:1025E0000120F5E70120F3E70120F1E70038024080
:1025F0000000474208B5264B9B6803F00C03042BF0
:1026000041D0082B41D1224B5A6802F03F025B684F
:1026100013F4800F12D01E4B5968C1F388111D4866
:102620000023A1FB0001FFF7C3FA194B5B68C3F35A
:10263000014301335B00B0FBF3F008BD144B586855
:10264000C0F388104FEA401CBCEB000C6EEB0E0E82
:102650004FEA8E1343EA9C634FEA8C11B1EB0C01F5
:1026600063EB0E03DB0043EA5173C90011EB000C6E
:1026700043F10003990200234FEA8C2041EA9C5168
:10268000FFF796FAD1E70348D7E70348D5E700BF3D
:102690000038024040787D010024F400002800F05A
:1026A0009B8070B50D4604464F4B1B6803F0070333
:1026B0008B4208D2CBB24C4A1370136803F0070365
:1026C0008B4240F08B80236813F0020F17D013F079
:1026D000040F04D0454A936843F4E05393602368A1
:1026E00013F0080F04D0414A936843F460439360A9
:1026F0003E4A936823F0F003A1680B43936023687C
:1027000013F0010F32D06368012B21D09A1E012AE9
:1027100025D9364A126812F0020F61D033498A680F
:1027200022F0030213438B6000F05AFA06462F4B47
:102730009B6803F00C036268B3EB820F16D000F0C5
:102740004FFA801B41F288339842F0D9032042E0CF
:10275000264A126812F4003FE0D101203BE0234AF0
:10276000126812F0007FD9D1012034E01E4B1B68A3
:1027700003F00703AB4207D9EAB21B4B1A701B6880
:1027800003F00703AB422DD1236813F0040F06D0EA
:10279000164A936823F4E053E1680B43936023687F
:1027A00013F0080F07D0114A936823F4604321699E
:1027B00043EAC1039360FFF71DFF0C4B9B68C3F313
:1027C00003130B4AD35CD8400A4B18600A4B1868B5
:1027D00000F0BAF9002070BD012070470120FAE72F
:1027E0000120F8E70120F6E7003C024000380240F3
:1027F000785F00086400002060000020014B18682A
:10280000704700BF6400002008B5FFF7F7FF044BD6
:102810009B68C3F38223034AD35CD84008BD00BF42
:1028200000380240705F000808B5FFF7E7FF044B6F
:102830009B68C3F34233034AD35CD84008BD00BF52
:1028400000380240705F000800230F2B00F2E9807F
:1028500070B582B065E085684FEA430E032404FA40
:102860000EF425EA0405CC6804FA0EF42C438460C7
:10287000446824EA02044A68C2F300129A402243E0
:1028800042605CE0DC08083450F8242003F00705BF
:10289000AD004FF00F0E0EFA05FE22EA0E0E0A6989
:1028A000AA4042EA0E0240F824205CE0072200E041
:1028B000002202FA0EF22A4302345A4D45F824202F
:1028C000594A94686FEA0C0224EA0C054E6816F423
:1028D000801F01D04CEA0405534CA560E46802EA6D
:1028E00004054E6816F4001F01D04CEA04054E4C56
:1028F000E560646802EA04054E6816F4003F01D002
:102900004CEA0405484C6560246822404D6815F483
:10291000803F01D04CEA0402434C226001330F2B6C
:102920007DD801229A400C6804EA020C32EA0404C1
:10293000F4D14C6804F00304013C012C8BD94A68A3
:1029400002F00302032A09D0C4685D000322AA40F2
:1029500024EA02048A68AA402243C2604A6802F05C
:102960000302022A8ED004684FEA430E032202FAC1
:102970000EF224EA02044A6802F0030202FA0EF29E
:10298000224302604A6812F4403FC7D000220192FD
:10299000264A546C44F480445464526C02F48042DD
:1029A0000192019A9C08A51C1E4A52F8255003F07A
:1029B000030E4FEA8E0E0F2202FA0EF225EA0205EE
:1029C0001B4A90423FF474AF02F5806290421AD0E5
:1029D00002F58062904218D002F58062904216D0D3
:1029E00002F58062904214D002F58062904212D0CB
:1029F00002F58062904210D002F5806290423FF46E
:102A000055AF082255E7012253E7022251E703227E
:102A10004FE704224DE705224BE7062249E702B0C3
:102A200070BD704700380140003C01400038024052
:102A3000000002400369194201D0012070470020C4
:102A400070470AB1816170470904816170470000D5
:102A5000002807DB00F01F02400901239340024ACF
:102A600042F82030704700BF00E100E0002808DB9A
:102A70000901C9B200F1604000F5614080F800131F
:102A8000704700F00F000901C9B2014B195470479B
:102A900014ED00E000B500F00700C0F1070CBCF138
:102AA000040F28BF4FF0040C031D062B0FD9C31EC3
:102AB0004FF0FF3E0EFA0CF021EA000199400EFAA9
:102AC00003FE22EA0E0241EA02005DF804FB002345
:102AD000EEE70000074AD36823F4E0631B041B0CF5
:102AE000000200F4E060034343F0BF6343F40033AB
:102AF000D360704700ED00E010B50446054BD86880
:102B0000C0F30220FFF7C6FF01462046FFF7AEFFE5
:102B100010BD00BF00ED00E008B5FFF799FF08BD4C
:102B20000138B0F1807F0BD24FF0E0235861054AA5
:102B3000F02182F823100020986107221A61704763
:102B40000120704700ED00E010B504460E4B1A78E6
:102B50004FF47A73B3FBF2F30C4A1068B0FBF3F056
:102B6000FFF7DEFF68B90F2C01D901200AE000222F
:102B700021464FF0FF30FFF7BFFF054B1C600020E0
:102B800000E0012010BD00BF5C00002064000020B8
:102B90006000002008B50B4B1A6842F400721A60FE
:102BA0001A6842F480621A601A6842F480721A60ED
:102BB0000320FFF78FFF0F20FFF7C6FFFFF7CAFACA
:102BC000002008BD003C0240034A1168034B1B78FB
:102BD0000B441360704700BF280300205C000020F6
:102BE000014B1868704700BF2803002038B5044621
:102BF000FFF7F6FF0546B4F1FF3F02D0044B1B7808
:102C00001C44FFF7EDFF401BA042FAD338BD00BFC4
:102C10005C000020034AD2F8883043F47003C2F805
:102C20008830704700ED00E010B503460C4A0D49AE
:102C30000D48006840B10C4800680344521A9342A2
:102C400006D8094A136010BD0748084C0460F2E733
:102C5000FDF792FD0C2303604FF0FF30F3E700BF58
:102C600000000220000400002C030020600D002062
:102C700070B50C461646002506E0AFF300802146ED
:102C800001F8010B01350C46B542F6DB304670BD4C
:102C900070B50C461646002504E014F8010BFFF74A
:102CA00053F90135B542F8DB304670BD4FF0FF30C7
:102CB00070474FF400534B6000207047012070476D
:102CC0000020704770B586B00024019402940394EC
:102CD000049405944FF4A8430193012502951D4ED9
:102CE00001A93046FFF7B0FD4FF4E0730193029461
:102CF000039501A91848FFF7A7FD2A464FF4804124
:102D00003046FFF79EFE2A464FF480513046FFF7CB
:102D100098FE2A464FF480613046FFF792FE214626
:102D200012E001EB41020D4C14440020E0540C4C25
:102D30001444E0541A440B4C44F822000133DBB233
:102D4000022BEED90131C9B2022901D80023F7E7DD
:102D500006B070BD000C0240000802406003002075
:102D60005403002030030020F0B583B0FFF738FF94
:102D7000064600256CE000223F4B33F814103F4814
:102D8000FFF75FFE0134E4B2022C09D8A542F2D06D
:102D90000122394B33F814103848FFF752FEF1E79F
:102DA0000023019302E0019B01330193019B632BFC
:102DB000F9D900240BE003EB43023A44DFF8D4C016
:102DC0005CF82220B21A132A24D80134E4B2022C6F
:102DD0003CD827462A4B33F814102A48FFF72AFE1E
:102DE000B0FA80F149092B4605EB4500264A02441A
:102DF000105D884222D005EB45022244DFF894C0E2
:102E00005CF82220002AD6D105EB450222444CF87A
:102E10002260D0E703EB43031C4A1A44D0551A4AF8
:102E20001A44D155D81962464FF0000C42F820C020
:102E3000174A1344D85DFFF797F8C6E705EB45033B
:102E40002344144A002142F82310BEE70135EDB2B5
:102E5000022D01D8002497E7002408E00122064B48
:102E600033F814100548FFF7ECFD0134E4B2022CEE
:102E7000F4D903B0F0BD00BF9C5F0008000C024015
:102E8000945F000800080240600300205403002003
:102E9000885F000830030020064A00231360536057
:102EA000054A13605360054A13609380044A137007
:102EB000704700BF7C030020740300206C030020D7
:102EC000690300200146A8B100230B4A12789A42F8
:102ED00006D90A4AD25C8A420CD00133DBB2F4E74D
:102EE000052A07D8054B9954054B134499700132B4
:102EF000014B1A70704700BF690300206C0300206B
:102F00007C030020844620B30023124A12789A42A0
:102F10001FD91149C95C61450FD00133DBB2F4E719
:102F2000581C0D4911F800C001F803C00B490844B2
:102F30008078194488700133DBB2511E8B42EFDB7D
:102F40000020054B5854054B0B449870014B1970E9
:102F500070477047690300206C0300207C03002049
:102F600010B5082208490948FDF720FE00B910BD38
:102F7000064C08222146064802F0A6FE024B94E8C1
:102F8000030083E80300F2E7740300207C030020C1
:102F90008403002008280BD808B5064B185C21B123
:102FA000FFF790FFFFF7DCFF08BDFFF7ABFFF9E786
:102FB000704700BFA45F0008026802F10C0353E8E9
:102FC000003F23F490730C3242E800310029F3D122
:102FD000026802F1140353E8003F23F001031432A6
:102FE00042E800310029F3D1036B012B05D02023E7
:102FF00080F84230002303637047026802F10C033B
:1030000053E8003F23F010030C3242E8003100295E
:10301000F3D1ECE710B504460268136923F440537A
:10302000C1680B431361836802691A4343691A43F9
:10303000C3691A430168CB6823F4164323F00C03D9
:103040001343CB600268536923F4407381690B43D7
:1030500053610368314A934206D002F5806293427D
:1030600002D0FFF7D1FB01E0FFF7DEFBE369B3F528
:10307000004F29D00021031849411B1841F10001DC
:10308000C90041EA5371DB00181863684FEA8302F4
:103090004FEA937341F10001FEF78AFD204AA2FB3B
:1030A00000314909642303FB11031B013233A2FBE6
:1030B00003235B0903F0F00202EB011203F00F039C
:1030C000216813448B6010BD0023021843EB0301F9
:1030D000121841F10001C90041EA5271D2001018E2
:1030E00041F10001626892185B41FEF761FD0C4AF4
:1030F000A2FB00314909642303FB1103DB003233D7
:10310000A2FB03235B095A0002F4F87202EB0112DE
:1031100003F00703216813448B60D4E700100140DB
:103120001F85EB512DE9F04383B005460E46174647
:103130009946DDF828802B681C6836EA04040CBF29
:1031400001240024BC4228D1B8F1FF3FF3D0FFF79F
:1031500047FDA0EB0900404523D8B8F1000F22D06D
:103160002B68DA6812F0040FE5D0802EE3D0402EF1
:10317000E1D01A6812F0080FDDD0002401941A681B
:1031800001925B680193019B2846FFF715FF082316
:103190006B6485F84040012000E0002003B0BDE8EA
:1031A000F0830320FAE70320F8E760B310B5044684
:1031B00090F8413013B3242384F841302268D36857
:1031C00023F40053D3602046FFF724FF22681369DD
:1031D00023F4904313612268536923F02A03536157
:1031E0002268D36843F40053D36000206064202336
:1031F00084F8413084F84230606310BD80F840307C
:10320000FEF7C4FFD7E7012070472DE9F04182B0F7
:103210001E4690F84130DBB2202B56D104460D46B5
:103220009046002955D00AB901204FE0002343649D
:10323000212380F84130FFF7D3FC0746A4F824800F
:10324000A4F82680A368B3F5805F02D04FF0000891
:1032500014E023692BB34FF000080FE0202384F81B
:103260004130032032E038F8023B2268C3F3080300
:103270005360E28C92B2013A92B2E284E38C9BB248
:1032800093B100963B46002280212046FFF74AFF7B
:103290000028E3D1002DE6D015F8012B23685A60F1
:1032A000E7E7A8460025E9E700963B4600224021D3
:1032B0002046FFF737FF18B9202384F8413005E096
:1032C000202384F84130032000E0022002B0BDE852
:1032D000F0810120FAE7000008B500220B490C48F4
:1032E00001F0FEFD48B90B49094801F010FE38B95C
:1032F000074801F026FE30B908BDFEF765FEF2E78B
:10330000FEF762FEF4E7FEF75FFEF5E79C000020A3
:10331000840300204001002012230B8000487047E6
:103320008800002004230B800048704784000020A0
:10333000002393421ED200B510E00CF1370C01F8C7
:1033400013C000014FEA430C0CF1010C4FF0000ECA
:1033500001F80CE00133DBB2934209D24FEA107C52
:10336000B0F1204FE9D20CF1300C01F813C0E8E7BE
:103370005DF804FB7047000038B50B4BD3F8100A1A
:10338000D3F8144AD3F8183AC01800D138BD074D05
:1033900008222946FFF7CCFF042205F11001204640
:1033A000FFF7C6FFF2E700BF0070FF1F6A000020B2
:1033B00008B51A230B80FFF7DFFF014808BD00BFE7
:1033C0006800002008B50A4628B90549054802F0FA
:1033D0000DFB034808BD0249024802F007FBF8E76D
:1033E00060060020EC5E000810B50A46034C21463A
:1033F000034802F0FBFA204610BD00BF6006002023
:10340000045F000808B50A4628B90549054802F0D6
:10341000EDFA034808BD0249024802F0E7FAF8E76E
:1034200060060020185F000808B50A4628B905495B
:10343000054802F0DBFA034808BD0249024802F0E1
:10344000D5FAF8E760060020245F000870B588B060
:103450000023039304930593069307930368B3F142
:10346000A04F01D008B070BD002501951B4C236B07
:1034700043F001032363236B03F001030193019BDA
:103480004FF400730393164E03A93046FFF7DCF99F
:103490004FF4C0530393022304930595032306932B
:1034A0000A23079303A93046FFF7CEF9636B43F075
:1034B000800363630295636C43F480436364636CCD
:1034C00003F480430293029B2A4629464320FFF7D8
:1034D00013FB4320FFF720FBC4E700BF0038024086
:1034E0000000024008B500F29C41D0F8E00401F071
:1034F0003EFD08BD08B501EBC10300EB8303D3F823
:103500006022D0F8E00401F005FE08BD08B501EB2B
:10351000C10300EB83031A6AD0F8E00401F05FFEF8
:1035200008BD08B5D0F8E00401F09FFD08BD10B556
:103530000446C17911B1022909D10121D4F8E0046E
:1035400001F074FDD4F8E00401F03DFD10BDFEF77C
:103550003BFD0121F2E7000010B50446D0F8E0047D
:1035600001F067FD2268D2F8003E43F00103C2F883
:10357000003EE37A23B1034A136943F00603136163
:1035800010BD00BF00ED00E008B5D0F8E00401F088
:103590005FFD08BD08B5D0F8E00401F08EFD08BD60
:1035A00008B5D0F8E00401F071FD08BD08B5D0F809
:1035B000E00401F099FD08BD08B5D0F8E00401F081
:1035C00095FD08BD02780AB10020704710B503468A
:1035D0001548C0F8E034C3F8C8024FF0A0430360B8
:1035E000042303710222C271002383714272837229
:1035F000C372037301228273C37300F0E7F880B9CA
:10360000094C8021204600F0A6FE402200212046E1
:1036100000F07BFE80220121204600F076FE002093
:1036200010BDFEF7D1FCEBE774080020D0F8C832DB
:1036300011F0800F08D101F07F0101EBC10103EB14
:10364000810393F85602704701F07F0101EBC1013D
:1036500003EB8103987D70470048704760080020A5
:103660007047032805D8DFE800F0050402050120B3
:1036700070470320704708B5D0F8C80200F027F95A
:10368000FFF7EFFF08BD08B594461A466346D0F829
:10369000C80200F0FCF9FFF7E4FF08BD08B5D0F858
:1036A000C80200F03AFAFFF7DCFF08BD08B5D0F811
:1036B000C80200F0B4FAFFF7D4FF08BD08B5D0F88F
:1036C000C80200F0EFFAFFF7CCFF08BD08B5D0F84C
:1036D000C80200F0C9F9FFF7C4FF08BD08B5D0F86B
:1036E000C80200F077FAFFF7BCFF08BD08B5D0F8B4
:1036F000C80200F04AFAFFF7B4FF08BD2DE9F04315
:1037000083B0D0F8008001EBC10300EB83039A6A19
:103710005B6A9A4254D807460C469B1A01EBC102D9
:1037200000EB8202D2699A4200D31A4602F10309E1
:103730004FEA990915E006F103094FEA9909BB79A7
:1037400004EBC40507EB8505296A0093B3B2E2B226
:10375000404601F040F92B6A33442B62AB6A334494
:10376000AB6208EB441303F510639B699BB24B45B6
:1037700012D304EBC40307EB83039A6A5B6A9A4291
:103780000AD24BB19B1A04EBC40207EB8202D66942
:103790009E42D0D31E46CEE704EBC40307EB83075B
:1037A0007A6ABB6A9A420FD804F00F040122A24041
:1037B000D8F8343823EA0203C8F83438002000E08F
:1037C000012003B0BDE8F0830020FAE730B583B0F4
:1037D00000287AD00446056890F89534C3B10323D5
:1037E00084F89534B5F1A04F17D0206800F0A6FEFC
:1037F000237C8DF80030231D0ECB206800F0DCFD0B
:1038000070B1022384F895340125284603B030BDF9
:1038100080F89434FFF71AFEE1E70023A371E4E790
:103820000021206801F0EDFA024608B9034617E0CE
:10383000022384F895340125E7E703EBC30104EB89
:103840008101012048750B75CB8500200876C86181
:10385000086203EBC30104EB810148620133DBB270
:1038600020799842E9D816E002EBC20304EB830307
:10387000002183F8551283F8542283F85812C3F8B4
:103880005C12C3F8601202EBC20304EB8303C3F8BB
:1038900064120132D2B29042E6D8237C8DF8003017
:1038A000231D0ECB206800F09FFE054620B10223A9
:1038B00084F895340125A8E700236374012384F874
:1038C0009534206801F05CFA9FE701259DE70368C5
:1038D00090F89424012A1AD010B50446012280F8E9
:1038E0009424DA6812F0400F02D0427B012A09D0FA
:1038F000206800F01DFE206801F034FA002084F8F2
:10390000940410BD9A6B42F480329A63F0E702206F
:103910007047000070B504460D460068066C00EB69
:10392000411303F530639A68A179012911D0384910
:103930008E4256D03DB905EBC50304EB8303D3F8A3
:103940006432002B5ED0E9B22046FFF7D3FD0020A1
:1039500070BD12F0080F09D02E498E42F7D912F42B
:10396000004FF4D04FF400429A60F0E712F0200FBD
:1039700002D020229A60EAE712F0280FE7D1254909
:103980008E4206D912F4004F03D04FF400429A60E1
:10399000DDE705EBC50204EB8202D2F874121B6965
:1039A000C3F31203CB1AC2F868327DB905EBC50226
:1039B00004EB8202D2F864226AB105EBC50204EB83
:1039C0008202D2F860121944C2F86012E9B22046AD
:1039D000FFF790FDBBE704F29C42012101F050FA91
:1039E000F4E712F4004F03D04FF400429A60AEE7C0
:1039F00012F0200F01D020229A60E9B22046FFF792
:103A000079FDA4E704F29C42002101F039FA9AE71B
:103A10000A31544F0A30544F38B5044603681D6CC0
:103A200003EB4113D3F8081B0E4A954207D903F55F
:103A3000306311F4004F02D04FF400429A602046E8
:103A4000FFF750FD074B9D4202D9A379012B01D00E
:103A5000002038BD04F29C420121206801F010FAD8
:103A6000F6E700BF0A30544F90F89434012B0CD085
:103A700010B50446012380F894344174006801F0C5
:103A800061F9002084F8940410BD0220704738B515
:103A900005468C4611F0800F2BD101F00F0E0EEB76
:103AA000CE04A40004F514740444211D0EEBCE0EC4
:103AB00000EB8E0E00208EF855020CF00F0C81F8F2
:103AC00000C0C2F30A028A600B714A780AB1A1F8F9
:103AD0001AC0022B1CD095F89434012B1BD0012363
:103AE00085F89434286800F05AFE002085F8940484
:103AF00038BD01F00F0000EBC001890010312944EE
:103B0000043100EBC00005EB800001244475D4E7CC
:103B100000234B71DFE70220EAE710B504460A46AE
:103B200011F0800F20D101F00F0000EBC0039B00CB
:103B300003F514732344191D00EBC00004EB80004F
:103B4000002380F8553202F00F020A7094F8943482
:103B5000012B18D0012384F89434206800F06CFE07
:103B6000002084F8940410BD01F00F0000EBC003A6
:103B70009B0010332344191D00EBC00004EB8000B0
:103B800001234375DFE70220EDE710B5144601F08D
:103B90000F0C0CEBCC01890001F5147101440431C8
:103BA0000CEBCC0E00EB8E0ECEF86022CEF8643219
:103BB0000023CEF868328EF855328EF854C28279DE
:103BC000012A04D0006800F01DFF002010BDCEF8CF
:103BD0007042F7E710B5144601F00F0C0CEBCC0166
:103BE00089001031014404310CEBCC0E00EB8E0E39
:103BF000CEF82020CEF824300023CEF82830012340
:103C00008EF815308EF814C082799A4204D000687C
:103C100000F0F8FE002010BDCEF83040F7E738B5D0
:103C200001F00F050279AA4238D304460B4611F081
:103C3000800F1FD101EBC101890001F5147101440E
:103C4000043103EBC30300EB8303002283F8552206
:103C500001238B700D7094F89434012B20D0012334
:103C600084F89434206801F012F885B1002084F8BB
:103C7000940438BD05EBC5018900103101440431BD
:103C800005EBC50300EB830301225A75E0E704F25C
:103C90009C42A179206801F0F3F8E7E70120E8E70A
:103CA0000220E6E701F00F0302799A4230D310B503
:103CB000044611F0800F1ED103EBC301890001F50A
:103CC00014710144043103EBC30200EB82020020B3
:103CD00082F8550200228A700B7094F89434012BFC
:103CE00018D0012384F89434206800F0FDFF0020F0
:103CF00084F8940410BD03EBC30189001031014422
:103D0000043103EBC30200EB820201205075E1E7AE
:103D1000012070470220EDE708B511F0800F0CD1AB
:103D200001F00F0101EBC101890001F5147101449B
:103D30000431006800F0F0FD08BD01F00F0101EB57
:103D4000C1018900103101440431F2E72DE9F04F3F
:103D500083B004460568284601F04FF810B103B05F
:103D6000BDE8F08F0646206801F018F80028F6D06C
:103D700005F50067BB68C3F30D23C4F8D43420688D
:103D800001F00CF810F0020F04D02268536903F020
:103D900002035361206801F001F810F0100F15D0F4
:103DA0002268936923F010039361D5F8208008F00E
:103DB0000F0908F4F013B3F5802F4CD0B3F5402F62
:103DC0006FD02268936943F010039361206800F07C
:103DD000E5FF10F4002F76D1206800F0DFFF10F42B
:103DE000802F40F0E080206800F0D8FF0028C0F26B
:103DF0006181206800F0D2FF10F4006F09D0BB6829
:103E000013F0010F40F06E812268536903F40063E0
:103E10005361206800F0C2FF10F4805F40F06681BB
:103E2000206800F0BBFF10F4005F40F0B381206811
:103E300000F0B4FF10F0080F40F0C481206800F0DB
:103E4000ADFF10F0800F00F0D781AB6923F0800345
:103E5000AB610126C0E147F6F07318EA030FB0D05A
:103E60004FEA181A4FEAC903019309EBC90B04EB97
:103E70008B0BC8F30A12DBF86012284600F0E4FE50
:103E8000DBF86032CAF30A0A5344CBF86032DBF83D
:103E90006832019A4A4404EB82025344C2F8683201
:103EA0008FE7082204F29C41284600F0CDFE09EB82
:103EB000C90304EB8303D3F86822C8F30A18424409
:103EC000C3F868227DE7206800F06CFF8046B146A9
:103ED00035E005EB49130122C3F8082B494620467B
:103EE000FFF718FD3CE005EB49130822C3F8082B47
:103EF00049462046FFF790FD35E009EBC90304EB86
:103F0000830393F85732012B41D005EB491302226A
:103F1000C3F8082B1AF0200F04D005EB4913202218
:103F2000C3F8082B1AF4005F05D005EB49134FF4D2
:103F30000052C3F8082B09F101094FEA5808B8F1FB
:103F4000000F3FF449AF18F0010FF4D05FFA89FB7E
:103F50005946206800F036FF824610F0010FB8D1B4
:103F60001AF0080FBFD11AF0100F04D005EB491357
:103F70001022C3F8082B1AF0020FCBD06B6913F094
:103F8000800FBAD07B6843F480637B60B5E709EBB0
:103F9000C90304EB8303002283F8572259462046C5
:103FA000FFF7F8FAB1E7206800F004FF8046B14659
:103FB00025E059462046FFF7A9FA1AF0080F04D069
:103FC00005EB49130822C3F808291AF0100F04D092
:103FD00005EB49131022C3F808291AF0400F04D04A
:103FE00005EB49134022C3F808291AF0020F40D10B
:103FF0001AF0800F59D109F101094FEA5808B8F1B8
:10400000000F3FF4F0AE18F0010FF4D05FFA89FB17
:104010005946206800F0DFFE824610F0010FCCD038
:1040200009F00F02012101FA02F27B6B23EA02037D
:104030007B6305EB4913C3F80819A3798B42B8D108
:1040400009EBC90304EB83031A6AD9690A441A62AB
:10405000B9F1000FADD109EBC90304EB83035B6A2F
:10406000002BA6D104F29C420121206800F008FF39
:104070009FE74946284600F067FA09EBC90304EBBD
:104080008303DB7D012B05D005EB49130222C3F826
:104090000829ADE709EBC90304EB83030022DA75B5
:1040A00059462046FFF77CFAEEE749462046FFF7DF
:1040B00025FBA0E77B6823F001037B6094F8CC34F8
:1040C000012B08D02046FFF75FFA2268536903F0FE
:1040D000004353618DE6002184F8CC14204600F0A3
:1040E0003EF9F2E72046FFF737FA8DE67B6823F0CA
:1040F00001037B601021206800F026FA1AE005EB2E
:1041000046134FF67F31C3F80819D3F8002922F47B
:104110000012C3F80029C3F8081BD3F8002B22F4BF
:104120000012C3F8002BD3F8002B42F00062C3F852
:10413000002B01362379B342E1D8FB6943F0011328
:10414000FB61E37BDBB1D7F8843043F00B03C7F8A6
:1041500084307B6C43F00B037B64D5F8003823F488
:10416000FE63C5F8003804F29C42A179206800F093
:1041700087FE2268536903F48053536150E67B69DC
:1041800043F4005343F02B037B613B6943F00B0383
:104190003B61E2E7206800F065FE206800F0EEFA7F
:1041A000E0712668FEF72AFB0146E279304600F00E
:1041B0004DF92046FFF7BBF92268536903F4005319
:1041C000536134E62046FFF7ACF92268536903F0E7
:1041D0000803536132E601362379B3420CD906EB6A
:1041E000C60304EB830393F85732012BF3D1F1B2EA
:1041F0002046FFF791FDEEE7206800F0CFFD10F4B8
:10420000801F25D1206800F0C9FD10F4001F58D090
:10421000012326E001362379B3421BD905EB46136F
:10422000D3F8002906EBC60304EB83031B7E012BA6
:10423000F0D1002AEEDA06EBC60304EB8303012279
:10424000DA7566F07F01C9B22046FFF765FDE1E748
:104250000126E0E72268536903F480135361D1E734
:10426000013322799A4227D905EB4312D2F8001B79
:1042700003EBC30204EB820292F85822012AEFD129
:104280000029EDDAD4F8D42482EA114212F0010FA9
:10429000E6D103EBC30204EB8202012182F857123C
:1042A000AA6942F08002AA616A6912F0800FD7D130
:1042B0007B6843F400737B602268536903F4001346
:1042C0005361206800F06AFD10F0804F10D1206823
:1042D00000F064FD10F0040F3FF441AD23685D6809
:1042E00015F0040F0DD1226853682B43536036E557
:1042F0002046FFF75BF92268536903F0804353615E
:10430000E5E72046FFF758F9EDE710B40468606A66
:1043100031B940EA0240A06200205DF8044B7047CA
:104320008C46A36A00EB1340002308E003F1400130
:1043300004EB8101496800EB11400133DBB20CF161
:10434000FF318B42F2D340EA02400CF13F0104EB13
:1043500081046060E0E7036859620020704770479D
:1043600082B000230193019B01330193019BB3F1C0
:10437000706F1CD80369002BF5DA0A23019302E061
:10438000019B013B0193019B002BF9D1036943F091
:1043900001030361019B01330193019BB3F1706F32
:1043A00008D8036913F0010FF4D1002000E00320C6
:1043B00002B070470320FBE784B010B5044603A8A1
:1043C00080E80E009DF81130012B21D1A36B23F45E
:1043D0008033A363E36823F4840323F04003E360A2
:1043E000E36823F44013E3609DF81830012B0AD0F2
:1043F0002046FFF7B5FF9DF80E30012B1CD0BDE81D
:10440000104004B07047E36843F48013E360EFE7C3
:10441000E36843F04003E3602046FFF7A1FF9DF807
:10442000153023B9A36B43F48033A363E3E7A36B95
:1044300023F48033A363DEE7A36843F00603A3609D
:10444000A36843F02003A360D9E70000022A0AD042
:104450000922C36823F47053C360C36843EA82230C
:10446000C36000207047234B0B44234A93422FD94B
:10447000224B0B44224A93422CD9A1F57403A3F595
:104480001053204A934227D9A1F18373A3F5E74340
:104490001D4A934222D31D4B0B441D4A93421FD900
:1044A0001C4B0B441C4A93421CD31C4B0B441C4A10
:1044B000934219D3A1F1B773A3F55853194A934204
:1044C00014D3194B0B44194A934211D20722C0E767
:1044D0000F22BEE70E22BCE70D22BAE70C22B8E796
:1044E0000B22B6E70A22B4E70922B2E70822B0E7B6
:1044F0000622AEE7405327FFFF340C00401E1BFF8F
:104500003F420F007F4F120020D6130060B6E5FE39
:104510005FE3160000D3CEFE40771B00C05BB3FE06
:10452000C091210020753800E05459FEE09C410004
:10453000836843F00103836000207047836823F0A1
:10454000010383600020704782B000230193019B28
:1045500001330193019BB3F1706F15D80369002BF0
:10456000F5DA00230193890141F020010161019BEB
:1045700001330193019BB3F1706F08D8036913F005
:10458000200FF4D1002000E0032002B07047032088
:10459000FBE782B000230193019B01330193019B50
:1045A000B3F1706F13D80369002BF5DA0023019380
:1045B00010230361019B01330193019BB3F1706FE1
:1045C00008D8036913F0100FF4D1002000E0032095
:1045D00002B070470320FBE7D0F800381943C0F859
:1045E000001800207047000084B0F8B5044607A802
:1045F00080E80E00002306E003F1400204EB820293
:104600000021516001330E2BF6D99DF8266006BBC0
:10461000D4F8043843F00203C4F80438A36B43F41D
:104620000013A363A36B23F40023A363A36B23F4FE
:104630008023A3630023C4F8003E9DF82130012BA2
:1046400015D19DF81F306BB900212046FFF7C4FF3C
:1046500011E0A36B23F40013A363A36B43F40023C3
:10466000A363E7E701212046FFF7B6FF03E003213C
:104670002046FFF7B1FF10212046FFF765FF0546F2
:1046800000B101252046FFF784FF00B1012504F5A4
:10469000006C0023CCF81030CCF81430CCF81C306F
:1046A0000AE0CBB94FF00060C2F8000900220A61AD
:1046B0004FF67F328A6001339DF81C10994210D961
:1046C00004EB431202F51061D2F800090028E8DB80
:1046D0000020C2F80009E9E74FF09040C2F8000955
:1046E000E4E700230AE0BBB14FF09047C2F8007B3B
:1046F000002202614FF67F3282600133994210D965
:1047000004EB431202F53060D2F8007B002FEADBA5
:104710000027C2F8007BEBE74FF00067C2F8007B90
:10472000E6E7DCF8103023F48073CCF81030002377
:10473000A3616FF0804363619DF81E301BB9A369CC
:1047400043F01003A361A2690B4B1343A3619DF8CF
:1047500022301BB1A36943F00803A361012E04D0EA
:104760002846BDE8F84004B07047A36943F0804391
:1047700043F00403A361F3E700383C80D0F8083825
:1047800003F00603022B04D0062B04D02BB9002023
:10479000704702207047022070470F20704710B505
:1047A00091F800C04B78012B23D000F5006ED0F8B3
:1047B0001C380CF00F040122A24043EA0243C0F867
:1047C0001C3800EB4C10D0F8003B13F4004F0ED116
:1047D000D0F8003B8A68C2F30A02097942EA8142B2
:1047E000134343F0805343F40043C0F8003B0020E0
:1047F00010BDD0F81C280CF00F0E03FA0EF39BB27C
:104800001343C0F81C3800EB4C10D0F8003913F4F7
:10481000004FECD1D0F800398A68C2F30A02097956
:1048200042EA814242EA8C52134343F0805343F4FC
:104830000043C0F80039DAE730B40B784A78012A2F
:1048400026D000EB4313D3F8002B002A52DBD0F81C
:104850003C480A7802F00F024FF0010C0CFA02F209
:1048600024EA0242C0F83C28D0F81C28097801F05C
:104870000F010CFA01FC22EA0C42C0F81C28D3F804
:10488000001B234A0A40C3F8002B002030BC7047AD
:1048900000EB4313D3F80029002A1EDBD0F83C5864
:1048A0000A7802F00F02012404FA02F292B225EA19
:1048B0000202C0F83C28D0F81C28097801F00F014A
:1048C0008C40A4B222EA0402C0F81C28D3F80019D4
:1048D000104A0A40C3F80029D7E7D3F8002942F06C
:1048E0000062C3F80029D3F8002942F08042C3F8DF
:1048F0000029D3E7D3F8002B42F00062C3F8002B65
:10490000D3F8002B42F08042C3F8002B9FE700BF92
:104910000078F3EF007833EC10B483B00246002344
:104920000193487801280BD00B7802EB4313D3F89E
:10493000000B00282DDB002003B05DF8044B70470E
:104940000B7802EB4313D3F80049002C01DB002065
:10495000F2E7D3F8004944F00064C3F800490B784B
:1049600002EB4313D3F8004944F08044C3F80049F4
:10497000019B01330193019C42F210739C42DBD8EE
:104980000B7802EB4313D3F80039002BF0DB002047
:10499000D2E7D3F8000B40F00060C3F8000B0B78AF
:1049A00002EB4313D3F8000B40F08040C3F8000B38
:1049B000019B01330193019842F21073984208D889
:1049C0000B7802EB4313D3F8003B002BF0DB002005
:1049D000B2E70120B0E710B59DF8084084B9033371
:1049E0004FEA930E4FF0000C08E000EB023303F5A2
:1049F000805351F8044B1C600CF1010CF445F4D3C6
:104A0000002010BDF0B583B00C784B78012B2DD071
:104A100000EB441C0CF530631D696FF312051D613A
:104A20001D696FF3DC451D61002C40F0CE800C69E0
:104A30000CB18C680C618C680C621D69C4F31204A3
:104A40002C431C611C6944F400241C61012A00F001
:104A5000DF800B79012B00F0E180DCF8003B43F0B4
:104A60000443CCF8003B002003B0F0BD0B6973BBDE
:104A700000EB4413D3F810596FF3DC45C3F8105919
:104A8000D3F8105945F40025C3F81059D3F810593C
:104A90006FF31205C3F81059012A54D000EB4414E7
:104AA000D4F8003943F00443C4F800390B79012BE2
:104AB00072D00B69002BD6D0D0F83438097801F0C9
:104AC0000F0101228A401343C0F83438CBE700EBD2
:104AD000441303F510631D696FF312051D611D6911
:104AE0006FF3DC451D6184B90E698D68AE4200D953
:104AF0000D611D6945F400251D611D690E69C6F330
:104B0000120C45EA0C051D61C6E70D698E68354437
:104B1000013DB5FBF6F51E691FFA85FC494F07EA12
:104B2000C54535431D610D79012DE6D11D6925F07F
:104B3000C0451D611D694FEA4C7C0CF0C04C45EA34
:104B40000C051D61D9E7CB691BB100EB4412C2F81B
:104B500014390B79012B08D000EB4414D4F8003938
:104B600043F00443C4F800397DE7D0F8083813F463
:104B7000807F08D100EB4412D2F8003943F0005393
:104B8000C2F80039E8E700EB4412D2F8003943F0EC
:104B90008053C2F80039DFE7D0F8083813F4807F7B
:104BA0000CD1D4F8003943F00053C4F80039009216
:104BB0000B8A0A78C968FFF70EFF54E7D4F800396A
:104BC00043F08053C4F80039F1E70C6954B91C690B
:104BD0008D68C5F312052C431C611C6944F4002444
:104BE0001C6133E78D682C44013CB4FBF5F4A4B29E
:104BF00004FB05F50D621D69124E06EAC4442C4300
:104C00001C611C690D6AC5F312052C431C611DE76C
:104C1000CA68002A3FF41DAF5A611AE7D0F8083875
:104C200013F4807F06D1DCF8003B43F00053CCF84E
:104C3000003B12E7DCF8003B43F08053CCF8003B2C
:104C40000BE700BF0000F81F10B5844608464FEA86
:104C5000920E02F00302002305E00CF58051096872
:104C600040F8041B01337345F7D37AB10CF5805C2F
:104C7000DCF800400021CBB2DB0024FA03F300F89B
:104C8000013B0131013A92B2002AF4D110BD0B78F8
:104C90004A78012A14D000EB4310D0F8002B002AE8
:104CA00006DB2BB1D0F8003B23F08043C0F8003B7B
:104CB000D0F8003B43F40013C0F8003B00207047DD
:104CC00000EB4310D0F80029002A06DB2BB1D0F806
:104CD000003923F08043C0F80039D0F8003943F49C
:104CE0000013C0F80039E9E70B784A78012A0ED0A2
:104CF00000EB4310D0F8003B23F40013C0F8003B56
:104D00000B79023BDBB2012B15D90020704700EB79
:104D10004310D0F8003923F40013C0F800390B79A0
:104D2000023BDBB2012BF0D8D0F8003943F08053BE
:104D3000C0F80039E9E7D0F8003B43F08053C0F8F1
:104D4000003BE2E7D0F8003823F4FE63C0F80038F7
:104D5000D0F80038090101F4FE610B43C0F80038B7
:104D600000207047D0F8003E23F00303C0F8003E57
:104D7000D0F8043823F00203C0F80438002070474C
:104D8000D0F8003E23F00303C0F8003ED0F804380A
:104D900043F00203C0F8043800207047426980697C
:104DA00010407047D0F8183800F50060C06918400E
:104DB000000C7047D0F8183800F50060C069184042
:104DC00080B2704700EB4111D1F8082B00F500606C
:104DD000406910407047D0F81028D0F8343801F0FE
:104DE0000F0C23FA0CF3DB01DBB2134300EB411091
:104DF00000F51060806818407047406900F00100BD
:104E0000704738B50546C36823F0C043C360012925
:104E100013D019BBC36843F08043C36000240A2049
:104E2000FDF7E4FE0A342846FFF7E7FF08B1C72C78
:104E3000F5D9C82C14D0002038BDC36843F0005306
:104E4000C36000240A20FDF7D1FE0A342846FFF78C
:104E5000D4FF0128EDD0C72CF4D9EAE70120EBE715
:104E60000120E9E7D0F800396FF30A03C0F80039F0
:104E7000D0F8043843F48073C0F804380020704739
:104E800010B4046C154B9C4203D9D0F8003B002BA6
:104E900016DB0024C0F8104BD0F8104B44F400246B
:104EA000C0F8104BD0F8104B44F01804C0F8104B69
:104EB000D0F8104B44F0C044C0F8104B012903D087
:104EC00000205DF8044B7047C0F8142BD0F8003B6D
:104ED00043F08023C0F8003BF2E700BF0A30544F94
:104EE00098B108B503460020C3F8B802C3F8C4025D
:104EF000C3F8D00209B1C3F8B412012183F89C129F
:104F00001A701846FEF75EFB08BD0320704710B507
:104F100082B00023ADF8063089B10446C0F8B8125B
:104F2000CB6A23B10DF106009847C4F8D002D4F83B
:104F3000D8320133C4F8D832002002B010BD0320AB
:104F4000FBE708B5FEF797FB08BD08B5D0F8B83207
:104F500013B11B68984708BD0020FCE708B5D0F8DE
:104F6000B8325B68984700B908BD0320FCE738B544
:104F7000044600F2AA25284600F0CDF90123C4F822
:104F80009432B4F8B032C4F8983294F8AA1201F00E
:104F90001F03012B07D0022B0AD073B929462046E4
:104FA00000F08EFB38BD2946204600F0C4FBF9E72F
:104FB0002946204600F001FCF4E701F0800120467C
:104FC000FEF774FBEEE7F8B50446012380F89C3247
:104FD0000023C0F894324360C0F8A43280F8A032B5
:104FE000D0F8B832E3B15B68E3B1002198470746D7
:104FF000D0B94023002211462046FEF744FB01268B
:1050000084F863614025A4F860512B46002280217A
:105010002046FEF738FB84F8236025843846F8BD27
:105020000027E6E70027E4E70327E2E70174002012
:10503000704790F89C32DBB2042B04D090F89C327D
:10504000DBB280F89D32042380F89C320020704748
:1050500090F89C32DBB2042B01D00020704790F80E
:105060009D32DBB280F89C32F7E708B590F89C32AD
:10507000DBB2032B01D0002008BDD0F8B832002BE2
:10508000F9D0DB69002BF6D09847F4E708B5D0F8E3
:10509000D432AE3350F823205AB190F89C32DBB2B0
:1050A000032B01D0002008BD136A23B198470020CC
:1050B000F9E70320F7E70020F5E708B5D0F8D43288
:1050C000AE3350F823205AB190F89C32DBB2032B58
:1050D00001D0002008BD536A23B198470020F9E7AA
:1050E0000320F7E70020F5E70020704708B501230B
:1050F00080F89C32D0F8B83223B15B6801799847C8
:1051000010B908BD0020FCE70320FAE70020704733
:105110000020704738B504460D46002945D1D0F827
:105120009432032B01D0084638BDD0F85831B0F87E
:105130006021934209D890F8AA3203F01F03012B93
:1051400012D0022B1FD0084613E09B1AC0F858312A
:10515000D0F864111144C0F864119A4238BF1A465D
:1051600000F07DFC2846DFE790F8AE12FFF7CEFF97
:1051700020B994F89C32DBB2032B09D0204600F012
:1051800076FC2846D0E790F8AE12FFF7C1FFEFE7B4
:1051900000F1AE0354F823301A69002AEED0C4F8A7
:1051A000D4021B6920469847E8E701F07F01FFF72A
:1051B000AFFF90B994F89C32DBB2032BB4D100F16D
:1051C000AE0354F823309A69002AADD0C4F8D40253
:1051D0009B69294620469847A6E70020A4E738B5F2
:1051E00004460D4600294CD1D0F89432022B07D04A
:1051F00094F8A00218B1002384F8A032284638BDE4
:105200008269038C9A420ED89A421AD094F89C3242
:10521000DBB2032B29D080212046FEF747FA204637
:1052200000F030FCE4E7D21A8261416A194441621D
:1052300000F00DFC00231A4619462046FEF756FAE8
:10524000D6E742699342E1D8D0F898329A42DDD24B
:105250000022114600F0FBFB0021C4F898120B4617
:105260000A462046FEF742FAC2E7D4F8B832DA68B6
:10527000002AD0D00022C4F8D422DB682046984708
:10528000C9E741F08001FFF743FF90B994F89C32E1
:10529000DBB2032BB3D100F1AE0354F823305A69CB
:1052A000002AACD0C4F8D4025B692946204698474E
:1052B000A5E70020A3E70B88027813440B8003784E
:1052C00018447047428803789A4218D930B583B0A1
:1052D00004460D46ADF806306388BDF806209A42B4
:1052E0000AD20DF10601FFF7E6FF4378052BF3D153
:1052F0008378AB42F0D100E0002003B030BD002045
:1053000070470346002002E00130C0B201331A7832
:10531000002AF9D170470B7803704B7843708B7873
:10532000CA7843EA022343800B794A7943EA02238D
:1053300083808B79CA7943EA0223C380704710B512
:1053400004468021FEF7B2F900212046FEF7AEF9AF
:1053500010BD30B583B004460D460023ADF80630CD
:105360004A88130A013B062B00F2AB80DFE803F00A
:10537000041F33A9A98D9A00D0F8B4321B680DF12F
:105380000601007C9847EA88002A00F0A380BDF857
:105390000630002B00F099809A4228BF1A46ADF8DB
:1053A00006200146204600F044FB03B030BD037CDC
:1053B00043B9D0F8B8329B6A0DF106009847022332
:1053C0004370E0E7D0F8B832DB6A0DF10600984789
:1053D00002234370D7E7D2B2052A52D8DFE802F0A1
:1053E00003101D2A3744D0F8B4325B6823B10DF1A5
:1053F0000601007C9847C6E72946FFF7A0FFD4E7DF
:10540000D0F8B4329B6823B10DF10601007C9847B7
:10541000B9E72946FFF793FFC7E7D0F8B432DB6856
:1054200023B10DF10601007C9847ACE72946FFF750
:1054300086FFBAE7D0F8B4321B6923B10DF106013B
:10544000007C98479FE72946FFF779FFADE7D0F842
:10545000B4325B6923B10DF10601007C984792E7F5
:105460002946FFF76CFFA0E7D0F8B4329B6923B15F
:105470000DF10601007C984785E72946FFF75FFF9D
:1054800093E72946FFF75BFF8FE7037C33B9D0F83A
:10549000B8325B6B0DF10600984774E72946FFF7B9
:1054A0004EFF82E7037C43B9D0F8B8321B6B0DF195
:1054B000060098470723437065E72946FFF73FFF3B
:1054C00073E72946FFF73BFF6FE729462046FFF7C2
:1054D00036FF6AE7204600F0CAFA66E738B50446A8
:1054E0008B88FBB9CB88EBB94B887F2B1AD803F09C
:1054F0007F0590F89C32DBB2032B0CD080F89E52D3
:105500002946FEF7E3F8204600F0B1FA35B1022350
:1055100084F89C3209E0FFF712FF06E0012384F8CB
:105520009C3202E02046FFF70AFF38BD70B5044602
:105530000E468D782F4B1D70012D10D890F89C329F
:10554000DBB2022B0FD0032B26D0FFF7F8FE294B3E
:1055500019782046FFF702FD0325284670BDFFF7A6
:10556000EEFE0325F9E7A5B145602946FFF7EDFCFE
:10557000054638B131462046FFF7E1FE022384F8A4
:105580009C32EAE7204600F072FA032384F89C324A
:10559000E3E700F06CFAE0E7CDB141688D4225D039
:1055A000C9B2FFF7DBFC134B197861602046FFF7A7
:1055B000CCFC0546B0B131462046FFF7C0FE21794C
:1055C0002046FFF7CBFC022384F89C32C5E7022378
:1055D00080F89C3245602946FFF7C0FC204600F069
:1055E00046FABAE7204600F042FAB6E700F03FFA82
:1055F0000025B2E7580D002008B5CB88012B0BD150
:1056000090F89C32DBB2022B09D9032B11D1012275
:10561000011D00F00EFA01E0FFF791FE08BD5BB23C
:105620003BB10146002341F8083F012200F001FA96
:10563000F4E7FFF784FEF1E708B590F89C32013BF0
:10564000022B12D8CB88022B0CD10123C360D0F8D7
:10565000A4320BB10323C360022200F10C0100F05D
:10566000E8F908BDFFF76BFEFBE7FFF768FEF8E718
:1056700008B54B88012B04D0022B07D0FFF75FFE43
:1056800008BDC0F8A43200F0F2F9F9E78B881B0AD4
:1056900080F8A03200F0EBF9F2E708B590F89C3200
:1056A000013B022B09D84B88012B00D008BD0023F9
:1056B000C0F8A43200F0DBF9F8E7FFF740FEF5E7A9
:1056C00038B50C7804F06004202C06D0402C04D0AF
:1056D0006CB1FFF734FE002407E0D0F8D432AE33CB
:1056E00050F823309B6898470446204638BD4D78D3
:1056F000092D1DD8DFE805F012191C161C08051C21
:105700000F0BFFF726FEF0E7FFF7E8FEEDE7FFF7E8
:105710000DFF0446E9E7FFF76FFFE6E7FFF78CFFB1
:105720002C46E2E7FFF7A4FFDFE7FFF7B6FFDCE771
:10573000FFF705FED9E770B505460C460B7803F078
:105740006003202B07D0402B05D023B1FFF7F7FDD6
:105750000026304670BD95F89C32013B022B26D8BE
:105760002179012905D921462846FFF7E8FD0026C1
:10577000EFE72846FFF7CAFC68B900F1AE0255F81A
:105780002220916889B1C5F8D40293682146284641
:105790009847064600E00326E388002BD9D1002E67
:1057A000D7D1284600F063F9D3E70326F4E7214672
:1057B0002846FFF7C4FD0026CBE72DE9F041064659
:1057C0000D468B88DFB20C7804F06004202C08D0E2
:1057D000402C06D0DCB1FFF7B2FD00242046BDE826
:1057E000F08139463046FFF793FC0446002840F02C
:1057F000F980C6F8D40200F1AE0356F823309B6856
:10580000002BEBD02946304698470446E6E791F84E
:105810000180B8F1010F31D0B8F1030F05D0B8F114
:10582000000F67D0FFF78BFDD8E790F89C32DBB212
:10583000022B04D0032B12D0FFF781FDCEE70FB16E
:10584000802F04D129463046FFF779FDC6E7394657
:10585000FDF72CFF80213046FDF728FFBEE74B887F
:1058600023B91FB1802F01D0CB881BB1304600F087
:10587000FEF8B3E73946FDF719FFF7E790F89C32D9
:10588000DBB2022B04D0032B12D0FFF758FDA5E7A3
:105890000FB1802F04D129463046FFF750FD9DE718
:1058A0003946FDF703FF80213046FDF7FFFE95E7FF
:1058B0004B88002B92D117F07F0F17D1304600F0A4
:1058C000D6F839463046FFF723FC002886D1C6F8C3
:1058D000D40200F1AE0256F822209268002A00F0AD
:1058E0008380294630469047044677E73946FDF7DE
:1058F000E5FEE3E790F89C22D2B2022A05D0032A03
:1059000028D0FFF71CFD444668E70FB1802F14D163
:1059100013F0800F15D107F07F0707EB8707B90059
:1059200001F5A87131440431002301F80E3F022231
:10593000304600F07EF8444650E7FFF700FD44464D
:105940004CE707F07F0707EB8707B90010313144B8
:105950000431E9E75BB2002B20DB07F00F0202EB1A
:10596000820200EB820292F8634124B3002B25DB14
:1059700007F07F0303EB83039C0004F5A874344411
:1059800004340FB1802F22D10023A373022204F12B
:105990000E01304600F04DF844461FE707F00F02B5
:1059A00002EB820200EB820292F82340002CDDD150
:1059B000FFF7C5FC12E7FFF7C2FC0FE707F07F0314
:1059C00003EB83039C00103434440434D9E7394694
:1059D0003046FDF72BFE10B10123A373D6E7002359
:1059E000A373D3E70024F9E60446F7E600B370B5E5
:1059F0000D4616460446FFF784FC01304300B3F51C
:105A0000007F06D89BB233802B7003236B70022378
:105A10000AE04FF40073F6E7EA5401345A1CD2B29C
:105A20000021A9540233DBB22278002AF4D170BDE0
:105A3000704708B513460222C0F8942243614162C0
:105A400083610A460021FDF749FE002008BD08B524
:105A500013460A460021FDF741FE002008BD08B5A7
:105A600013460A460021FDF741FE002008BD08B597
:105A70000422C0F8942200231A461946FDF72EFE90
:105A8000002008BD08B50522C0F8942200231A465C
:105A90001946FDF72BFE002008BDD0F8D432B033F4
:105AA00050F8233000201873704700000A23038049
:105AB000004870470401002010B5044681210548C4
:105AC000FFF700FC08B10A228271222323800148DB
:105AD00010BD00BF1C01002010B5044681210548FF
